{
  "contractName": "FamilyWallet",
  "abi": [
    {
      "anonymous": false,
      "inputs": [
        {
          "indexed": true,
          "internalType": "address",
          "name": "_forWho",
          "type": "address"
        },
        {
          "indexed": true,
          "internalType": "address",
          "name": "_byWhom",
          "type": "address"
        },
        {
          "indexed": false,
          "internalType": "uint256",
          "name": "_oldAmount",
          "type": "uint256"
        },
        {
          "indexed": false,
          "internalType": "uint256",
          "name": "_newAmount",
          "type": "uint256"
        }
      ],
      "name": "AllowanceChanged",
      "type": "event"
    },
    {
      "anonymous": false,
      "inputs": [
        {
          "indexed": true,
          "internalType": "address",
          "name": "_from",
          "type": "address"
        },
        {
          "indexed": false,
          "internalType": "uint256",
          "name": "_amount",
          "type": "uint256"
        }
      ],
      "name": "MoneyReceived",
      "type": "event"
    },
    {
      "anonymous": false,
      "inputs": [
        {
          "indexed": true,
          "internalType": "address",
          "name": "_beneficiary",
          "type": "address"
        },
        {
          "indexed": false,
          "internalType": "uint256",
          "name": "_amount",
          "type": "uint256"
        }
      ],
      "name": "MoneySent",
      "type": "event"
    },
    {
      "anonymous": false,
      "inputs": [
        {
          "indexed": true,
          "internalType": "address",
          "name": "previousOwner",
          "type": "address"
        },
        {
          "indexed": true,
          "internalType": "address",
          "name": "newOwner",
          "type": "address"
        }
      ],
      "name": "OwnershipTransferred",
      "type": "event"
    },
    {
      "anonymous": false,
      "inputs": [
        {
          "indexed": false,
          "internalType": "address",
          "name": "from",
          "type": "address"
        },
        {
          "indexed": false,
          "internalType": "address",
          "name": "to",
          "type": "address"
        },
        {
          "indexed": false,
          "internalType": "uint256",
          "name": "amount",
          "type": "uint256"
        },
        {
          "indexed": false,
          "internalType": "string",
          "name": "message",
          "type": "string"
        },
        {
          "indexed": false,
          "internalType": "uint256",
          "name": "timestamp",
          "type": "uint256"
        },
        {
          "indexed": false,
          "internalType": "string",
          "name": "keyword",
          "type": "string"
        }
      ],
      "name": "Transfer",
      "type": "event"
    },
    {
      "inputs": [
        {
          "internalType": "address",
          "name": "",
          "type": "address"
        }
      ],
      "name": "allowance",
      "outputs": [
        {
          "internalType": "uint256",
          "name": "",
          "type": "uint256"
        }
      ],
      "stateMutability": "view",
      "type": "function",
      "constant": true
    },
    {
      "inputs": [],
      "name": "isStopped",
      "outputs": [
        {
          "internalType": "bool",
          "name": "",
          "type": "bool"
        }
      ],
      "stateMutability": "view",
      "type": "function",
      "constant": true
    },
    {
      "inputs": [],
      "name": "numOfBeneficiaries",
      "outputs": [
        {
          "internalType": "uint256",
          "name": "",
          "type": "uint256"
        }
      ],
      "stateMutability": "view",
      "type": "function",
      "constant": true
    },
    {
      "inputs": [],
      "name": "owner",
      "outputs": [
        {
          "internalType": "address",
          "name": "",
          "type": "address"
        }
      ],
      "stateMutability": "view",
      "type": "function",
      "constant": true
    },
    {
      "inputs": [
        {
          "internalType": "address",
          "name": "newOwner",
          "type": "address"
        }
      ],
      "name": "transferOwnership",
      "outputs": [],
      "stateMutability": "nonpayable",
      "type": "function"
    },
    {
      "stateMutability": "payable",
      "type": "receive",
      "payable": true
    },
    {
      "inputs": [],
      "name": "emergencyWithdraw",
      "outputs": [],
      "stateMutability": "nonpayable",
      "type": "function"
    },
    {
      "inputs": [],
      "name": "destroy",
      "outputs": [],
      "stateMutability": "nonpayable",
      "type": "function"
    },
    {
      "inputs": [],
      "name": "stopContract",
      "outputs": [],
      "stateMutability": "nonpayable",
      "type": "function"
    },
    {
      "inputs": [],
      "name": "resumeContract",
      "outputs": [],
      "stateMutability": "nonpayable",
      "type": "function"
    },
    {
      "inputs": [
        {
          "internalType": "address",
          "name": "_who",
          "type": "address"
        },
        {
          "internalType": "uint256",
          "name": "_amount",
          "type": "uint256"
        }
      ],
      "name": "addAllowance",
      "outputs": [],
      "stateMutability": "nonpayable",
      "type": "function"
    },
    {
      "inputs": [
        {
          "internalType": "address",
          "name": "_who",
          "type": "address"
        },
        {
          "internalType": "uint256",
          "name": "_amount",
          "type": "uint256"
        }
      ],
      "name": "reduceAllowance",
      "outputs": [],
      "stateMutability": "nonpayable",
      "type": "function"
    },
    {
      "inputs": [
        {
          "internalType": "address",
          "name": "_who",
          "type": "address"
        }
      ],
      "name": "getAllowance",
      "outputs": [
        {
          "internalType": "uint256",
          "name": "",
          "type": "uint256"
        }
      ],
      "stateMutability": "view",
      "type": "function",
      "constant": true
    },
    {
      "inputs": [
        {
          "internalType": "address payable",
          "name": "to",
          "type": "address"
        },
        {
          "internalType": "uint256",
          "name": "amount",
          "type": "uint256"
        },
        {
          "internalType": "string",
          "name": "message",
          "type": "string"
        },
        {
          "internalType": "string",
          "name": "keyword",
          "type": "string"
        }
      ],
      "name": "addToBlockchain",
      "outputs": [],
      "stateMutability": "nonpayable",
      "type": "function"
    },
    {
      "inputs": [],
      "name": "getAllTransactions",
      "outputs": [
        {
          "components": [
            {
              "internalType": "address",
              "name": "sender",
              "type": "address"
            },
            {
              "internalType": "address",
              "name": "receiver",
              "type": "address"
            },
            {
              "internalType": "uint256",
              "name": "amount",
              "type": "uint256"
            },
            {
              "internalType": "string",
              "name": "message",
              "type": "string"
            },
            {
              "internalType": "uint256",
              "name": "timestamp",
              "type": "uint256"
            },
            {
              "internalType": "string",
              "name": "keyword",
              "type": "string"
            }
          ],
          "internalType": "struct FamilyWallet.TransferStruct[]",
          "name": "",
          "type": "tuple[]"
        }
      ],
      "stateMutability": "view",
      "type": "function",
      "constant": true
    },
    {
      "inputs": [],
      "name": "getTransactionCount",
      "outputs": [
        {
          "internalType": "uint256",
          "name": "",
          "type": "uint256"
        }
      ],
      "stateMutability": "view",
      "type": "function",
      "constant": true
    },
    {
      "inputs": [],
      "name": "getTransactionsLength",
      "outputs": [
        {
          "internalType": "uint256",
          "name": "",
          "type": "uint256"
        }
      ],
      "stateMutability": "view",
      "type": "function",
      "constant": true
    },
    {
      "inputs": [
        {
          "internalType": "address payable",
          "name": "_to",
          "type": "address"
        },
        {
          "internalType": "uint256",
          "name": "_amount",
          "type": "uint256"
        }
      ],
      "name": "withdrawMoney",
      "outputs": [],
      "stateMutability": "nonpayable",
      "type": "function"
    },
    {
      "inputs": [],
      "name": "renounceOwnership",
      "outputs": [],
      "stateMutability": "view",
      "type": "function",
      "constant": true
    }
  ],
  "bytecode": "0x60806040526000600360006101000a81548160ff02191690831515021790555034801561002b57600080fd5b5061004861003d61004d60201b60201c565b61005560201b60201c565b610119565b600033905090565b60008060009054906101000a900473ffffffffffffffffffffffffffffffffffffffff169050816000806101000a81548173ffffffffffffffffffffffffffffffffffffffff021916908373ffffffffffffffffffffffffffffffffffffffff1602179055508173ffffffffffffffffffffffffffffffffffffffff168173ffffffffffffffffffffffffffffffffffffffff167f8be0079c531659141344cd1fd0a4f28419497f9722a3daafe3b4186f6b6457e060405160405180910390a35050565b61201a80620001296000396000f3fe60806040526004361061010d5760003560e01c8063c4bc5da511610095578063eb5a662e11610064578063eb5a662e14610340578063f21936271461037d578063f274c897146103a8578063f2fde38b146103d1578063f3c40c4b146103fa57610162565b8063c4bc5da5146102be578063cc2d7ead146102d5578063d61f31c5146102fe578063db2e21bc1461032957610162565b80633f683b6a116100dc5780633f683b6a14610211578063715018a61461023c57806383197ef0146102535780638da5cb5b1461026a5780638fdf08df1461029557610162565b806312253a6c1461016757806327506f531461017e5780632e7700f0146101a95780633e5beab9146101d457610162565b36610162573373ffffffffffffffffffffffffffffffffffffffff167f27b15ed4cf832749ed39f33a64e4707ed60a761485e41ffec7343ecaddc0c02a346040516101589190611493565b60405180910390a2005b600080fd5b34801561017357600080fd5b5061017c610423565b005b34801561018a57600080fd5b506101936104bc565b6040516101a091906116e9565b60405180910390f35b3480156101b557600080fd5b506101be6106ff565b6040516101cb9190611493565b60405180910390f35b3480156101e057600080fd5b506101fb60048036038101906101f6919061174b565b610709565b6040516102089190611493565b60405180910390f35b34801561021d57600080fd5b50610226610721565b6040516102339190611793565b60405180910390f35b34801561024857600080fd5b50610251610734565b005b34801561025f57600080fd5b506102686107eb565b005b34801561027657600080fd5b5061027f610899565b60405161028c91906117bd565b60405180910390f35b3480156102a157600080fd5b506102bc60048036038101906102b79190611804565b6108c2565b005b3480156102ca57600080fd5b506102d3610ace565b005b3480156102e157600080fd5b506102fc60048036038101906102f791906119b7565b610b67565b005b34801561030a57600080fd5b50610313610d2a565b6040516103209190611493565b60405180910390f35b34801561033557600080fd5b5061033e610d30565b005b34801561034c57600080fd5b506103676004803603810190610362919061174b565b610e7b565b6040516103749190611493565b60405180910390f35b34801561038957600080fd5b50610392610ec4565b60405161039f9190611493565b60405180910390f35b3480156103b457600080fd5b506103cf60048036038101906103ca9190611a56565b610ed1565b005b3480156103dd57600080fd5b506103f860048036038101906103f3919061174b565b611057565b005b34801561040657600080fd5b50610421600480360381019061041c9190611804565b61114e565b005b61042b6112b8565b73ffffffffffffffffffffffffffffffffffffffff16610449610899565b73ffffffffffffffffffffffffffffffffffffffff161461049f576040517f08c379a000000000000000000000000000000000000000000000000000000000815260040161049690611af3565b60405180910390fd5b6001600360006101000a81548160ff021916908315150217905550565b60606004805480602002602001604051908101604052809291908181526020016000905b828210156106f657838290600052602060002090600602016040518060c00160405290816000820160009054906101000a900473ffffffffffffffffffffffffffffffffffffffff1673ffffffffffffffffffffffffffffffffffffffff1673ffffffffffffffffffffffffffffffffffffffff1681526020016001820160009054906101000a900473ffffffffffffffffffffffffffffffffffffffff1673ffffffffffffffffffffffffffffffffffffffff1673ffffffffffffffffffffffffffffffffffffffff168152602001600282015481526020016003820180546105c990611b42565b80601f01602080910402602001604051908101604052809291908181526020018280546105f590611b42565b80156106425780601f1061061757610100808354040283529160200191610642565b820191906000526020600020905b81548152906001019060200180831161062557829003601f168201915b505050505081526020016004820154815260200160058201805461066590611b42565b80601f016020809104026020016040519081016040528092919081815260200182805461069190611b42565b80156106de5780601f106106b3576101008083540402835291602001916106de565b820191906000526020600020905b8154815290600101906020018083116106c157829003601f168201915b505050505081525050815260200190600101906104e0565b50505050905090565b6000600254905090565b60056020528060005260406000206000915090505481565b600360009054906101000a900460ff1681565b61073c6112b8565b73ffffffffffffffffffffffffffffffffffffffff1661075a610899565b73ffffffffffffffffffffffffffffffffffffffff16146107b0576040517f08c379a00000000000000000000000000000000000000000000000000000000081526004016107a790611af3565b60405180910390fd5b6040517f08c379a00000000000000000000000000000000000000000000000000000000081526004016107e290611bbf565b60405180910390fd5b600360009054906101000a900460ff1661080457600080fd5b61080c6112b8565b73ffffffffffffffffffffffffffffffffffffffff1661082a610899565b73ffffffffffffffffffffffffffffffffffffffff1614610880576040517f08c379a000000000000000000000000000000000000000000000000000000000815260040161087790611af3565b60405180910390fd5b3073ffffffffffffffffffffffffffffffffffffffff16ff5b60008060009054906101000a900473ffffffffffffffffffffffffffffffffffffffff16905090565b6108ca6112b8565b73ffffffffffffffffffffffffffffffffffffffff166108e8610899565b73ffffffffffffffffffffffffffffffffffffffff161461093e576040517f08c379a000000000000000000000000000000000000000000000000000000000815260040161093590611af3565b60405180910390fd5b3373ffffffffffffffffffffffffffffffffffffffff168273ffffffffffffffffffffffffffffffffffffffff167f3691d1a86d99355e52b689ca70a7bdf6d80763237a6aa06e5fa43964eac7244b600560008673ffffffffffffffffffffffffffffffffffffffff1673ffffffffffffffffffffffffffffffffffffffff16815260200190815260200160002054610a1f85600560008973ffffffffffffffffffffffffffffffffffffffff1673ffffffffffffffffffffffffffffffffffffffff168152602001908152602001600020546112c090919063ffffffff16565b604051610a2d929190611bdf565b60405180910390a3610a8781600560008573ffffffffffffffffffffffffffffffffffffffff1673ffffffffffffffffffffffffffffffffffffffff168152602001908152602001600020546112c090919063ffffffff16565b600560008473ffffffffffffffffffffffffffffffffffffffff1673ffffffffffffffffffffffffffffffffffffffff168152602001908152602001600020819055505050565b610ad66112b8565b73ffffffffffffffffffffffffffffffffffffffff16610af4610899565b73ffffffffffffffffffffffffffffffffffffffff1614610b4a576040517f08c379a0000000000000000000000000000000000000000000000000000000008152600401610b4190611af3565b60405180910390fd5b6000600360006101000a81548160ff021916908315150217905550565b600160026000828254610b7a9190611c37565b925050819055507f416cfa4330a4565f45c2fd2dd4826a83a37443aba2ce6f79477c7355afac35fa338585854286604051610bba96959493929190611d25565b60405180910390a160046040518060c001604052803373ffffffffffffffffffffffffffffffffffffffff1681526020018673ffffffffffffffffffffffffffffffffffffffff16815260200185815260200184815260200142815260200183815250908060018154018082558091505060019003906000526020600020906006020160009091909190915060008201518160000160006101000a81548173ffffffffffffffffffffffffffffffffffffffff021916908373ffffffffffffffffffffffffffffffffffffffff16021790555060208201518160010160006101000a81548173ffffffffffffffffffffffffffffffffffffffff021916908373ffffffffffffffffffffffffffffffffffffffff160217905550604082015181600201556060820151816003019080519060200190610cfa9291906113d7565b506080820151816004015560a0820151816005019080519060200190610d219291906113d7565b50505050505050565b60015481565b600360009054906101000a900460ff16610d4957600080fd5b610d516112b8565b73ffffffffffffffffffffffffffffffffffffffff16610d6f610899565b73ffffffffffffffffffffffffffffffffffffffff1614610dc5576040517f08c379a0000000000000000000000000000000000000000000000000000000008152600401610dbc90611af3565b60405180910390fd5b6000610dcf610899565b73ffffffffffffffffffffffffffffffffffffffff1647604051610df290611dc5565b60006040518083038185875af1925050503d8060008114610e2f576040519150601f19603f3d011682016040523d82523d6000602084013e610e34565b606091505b5050905080610e78576040517f08c379a0000000000000000000000000000000000000000000000000000000008152600401610e6f90611e26565b60405180910390fd5b50565b6000600560008373ffffffffffffffffffffffffffffffffffffffff1673ffffffffffffffffffffffffffffffffffffffff168152602001908152602001600020549050919050565b6000600480549050905090565b80610eda6112d6565b80610f24575080600560003373ffffffffffffffffffffffffffffffffffffffff1673ffffffffffffffffffffffffffffffffffffffff1681526020019081526020016000205410155b610f63576040517f08c379a0000000000000000000000000000000000000000000000000000000008152600401610f5a90611e92565b60405180910390fd5b47821115610fa6576040517f08c379a0000000000000000000000000000000000000000000000000000000008152600401610f9d90611efe565b60405180910390fd5b610fae6112d6565b610fbd57610fbc33836108c2565b5b8273ffffffffffffffffffffffffffffffffffffffff167f7f51d406915971d4ac1c91af96be5187ea6ab64753785aad519a533def80a41e836040516110039190611493565b60405180910390a28273ffffffffffffffffffffffffffffffffffffffff166108fc839081150290604051600060405180830381858888f19350505050158015611051573d6000803e3d6000fd5b50505050565b61105f6112b8565b73ffffffffffffffffffffffffffffffffffffffff1661107d610899565b73ffffffffffffffffffffffffffffffffffffffff16146110d3576040517f08c379a00000000000000000000000000000000000000000000000000000000081526004016110ca90611af3565b60405180910390fd5b600073ffffffffffffffffffffffffffffffffffffffff168173ffffffffffffffffffffffffffffffffffffffff1603611142576040517f08c379a000000000000000000000000000000000000000000000000000000000815260040161113990611f90565b60405180910390fd5b61114b81611313565b50565b6111566112b8565b73ffffffffffffffffffffffffffffffffffffffff16611174610899565b73ffffffffffffffffffffffffffffffffffffffff16146111ca576040517f08c379a00000000000000000000000000000000000000000000000000000000081526004016111c190611af3565b60405180910390fd5b80600560008473ffffffffffffffffffffffffffffffffffffffff1673ffffffffffffffffffffffffffffffffffffffff168152602001908152602001600020819055503373ffffffffffffffffffffffffffffffffffffffff168273ffffffffffffffffffffffffffffffffffffffff167f3691d1a86d99355e52b689ca70a7bdf6d80763237a6aa06e5fa43964eac7244b600560008673ffffffffffffffffffffffffffffffffffffffff1673ffffffffffffffffffffffffffffffffffffffff16815260200190815260200160002054846040516112ac929190611bdf565b60405180910390a35050565b600033905090565b600081836112ce9190611fb0565b905092915050565b60003373ffffffffffffffffffffffffffffffffffffffff166112f7610899565b73ffffffffffffffffffffffffffffffffffffffff1614905090565b60008060009054906101000a900473ffffffffffffffffffffffffffffffffffffffff169050816000806101000a81548173ffffffffffffffffffffffffffffffffffffffff021916908373ffffffffffffffffffffffffffffffffffffffff1602179055508173ffffffffffffffffffffffffffffffffffffffff168173ffffffffffffffffffffffffffffffffffffffff167f8be0079c531659141344cd1fd0a4f28419497f9722a3daafe3b4186f6b6457e060405160405180910390a35050565b8280546113e390611b42565b90600052602060002090601f016020900481019282611405576000855561144c565b82601f1061141e57805160ff191683800117855561144c565b8280016001018555821561144c579182015b8281111561144b578251825591602001919060010190611430565b5b509050611459919061145d565b5090565b5b8082111561147657600081600090555060010161145e565b5090565b6000819050919050565b61148d8161147a565b82525050565b60006020820190506114a86000830184611484565b92915050565b600081519050919050565b600082825260208201905092915050565b6000819050602082019050919050565b600073ffffffffffffffffffffffffffffffffffffffff82169050919050565b6000611505826114da565b9050919050565b611515816114fa565b82525050565b6115248161147a565b82525050565b600081519050919050565b600082825260208201905092915050565b60005b83811015611564578082015181840152602081019050611549565b83811115611573576000848401525b50505050565b6000601f19601f8301169050919050565b60006115958261152a565b61159f8185611535565b93506115af818560208601611546565b6115b881611579565b840191505092915050565b600060c0830160008301516115db600086018261150c565b5060208301516115ee602086018261150c565b506040830151611601604086018261151b565b5060608301518482036060860152611619828261158a565b915050608083015161162e608086018261151b565b5060a083015184820360a0860152611646828261158a565b9150508091505092915050565b600061165f83836115c3565b905092915050565b6000602082019050919050565b600061167f826114ae565b61168981856114b9565b93508360208202850161169b856114ca565b8060005b858110156116d757848403895281516116b88582611653565b94506116c383611667565b925060208a0199505060018101905061169f565b50829750879550505050505092915050565b600060208201905081810360008301526117038184611674565b905092915050565b6000604051905090565b600080fd5b600080fd5b611728816114fa565b811461173357600080fd5b50565b6000813590506117458161171f565b92915050565b60006020828403121561176157611760611715565b5b600061176f84828501611736565b91505092915050565b60008115159050919050565b61178d81611778565b82525050565b60006020820190506117a86000830184611784565b92915050565b6117b7816114fa565b82525050565b60006020820190506117d260008301846117ae565b92915050565b6117e18161147a565b81146117ec57600080fd5b50565b6000813590506117fe816117d8565b92915050565b6000806040838503121561181b5761181a611715565b5b600061182985828601611736565b925050602061183a858286016117ef565b9150509250929050565b600061184f826114da565b9050919050565b61185f81611844565b811461186a57600080fd5b50565b60008135905061187c81611856565b92915050565b600080fd5b600080fd5b7f4e487b7100000000000000000000000000000000000000000000000000000000600052604160045260246000fd5b6118c482611579565b810181811067ffffffffffffffff821117156118e3576118e261188c565b5b80604052505050565b60006118f661170b565b905061190282826118bb565b919050565b600067ffffffffffffffff8211156119225761192161188c565b5b61192b82611579565b9050602081019050919050565b82818337600083830152505050565b600061195a61195584611907565b6118ec565b90508281526020810184848401111561197657611975611887565b5b611981848285611938565b509392505050565b600082601f83011261199e5761199d611882565b5b81356119ae848260208601611947565b91505092915050565b600080600080608085870312156119d1576119d0611715565b5b60006119df8782880161186d565b94505060206119f0878288016117ef565b935050604085013567ffffffffffffffff811115611a1157611a1061171a565b5b611a1d87828801611989565b925050606085013567ffffffffffffffff811115611a3e57611a3d61171a565b5b611a4a87828801611989565b91505092959194509250565b60008060408385031215611a6d57611a6c611715565b5b6000611a7b8582860161186d565b9250506020611a8c858286016117ef565b9150509250929050565b600082825260208201905092915050565b7f4f776e61626c653a2063616c6c6572206973206e6f7420746865206f776e6572600082015250565b6000611add602083611a96565b9150611ae882611aa7565b602082019050919050565b60006020820190508181036000830152611b0c81611ad0565b9050919050565b7f4e487b7100000000000000000000000000000000000000000000000000000000600052602260045260246000fd5b60006002820490506001821680611b5a57607f821691505b602082108103611b6d57611b6c611b13565b5b50919050565b7f43616e6e6f742072656e6f756e6365206f776e65727368697021000000000000600082015250565b6000611ba9601a83611a96565b9150611bb482611b73565b602082019050919050565b60006020820190508181036000830152611bd881611b9c565b9050919050565b6000604082019050611bf46000830185611484565b611c016020830184611484565b9392505050565b7f4e487b7100000000000000000000000000000000000000000000000000000000600052601160045260246000fd5b6000611c428261147a565b9150611c4d8361147a565b9250827fffffffffffffffffffffffffffffffffffffffffffffffffffffffffffffffff03821115611c8257611c81611c08565b5b828201905092915050565b6000819050919050565b6000611cb2611cad611ca8846114da565b611c8d565b6114da565b9050919050565b6000611cc482611c97565b9050919050565b6000611cd682611cb9565b9050919050565b611ce681611ccb565b82525050565b6000611cf78261152a565b611d018185611a96565b9350611d11818560208601611546565b611d1a81611579565b840191505092915050565b600060c082019050611d3a60008301896117ae565b611d476020830188611cdd565b611d546040830187611484565b8181036060830152611d668186611cec565b9050611d756080830185611484565b81810360a0830152611d878184611cec565b9050979650505050505050565b600081905092915050565b50565b6000611daf600083611d94565b9150611dba82611d9f565b600082019050919050565b6000611dd082611da2565b9150819050919050565b7f5472616e73666572206661696c65642e00000000000000000000000000000000600082015250565b6000611e10601083611a96565b9150611e1b82611dda565b602082019050919050565b60006020820190508181036000830152611e3f81611e03565b9050919050565b7f596f7520617265206e6f7420616c6c6f77656421000000000000000000000000600082015250565b6000611e7c601483611a96565b9150611e8782611e46565b602082019050919050565b60006020820190508181036000830152611eab81611e6f565b9050919050565b7f496e73756666696369656e742066756e64732100000000000000000000000000600082015250565b6000611ee8601383611a96565b9150611ef382611eb2565b602082019050919050565b60006020820190508181036000830152611f1781611edb565b9050919050565b7f4f776e61626c653a206e6577206f776e657220697320746865207a65726f206160008201527f6464726573730000000000000000000000000000000000000000000000000000602082015250565b6000611f7a602683611a96565b9150611f8582611f1e565b604082019050919050565b60006020820190508181036000830152611fa981611f6d565b9050919050565b6000611fbb8261147a565b9150611fc68361147a565b925082821015611fd957611fd8611c08565b5b82820390509291505056fea2646970667358221220f2254a9d9371d87e8eae1faa667bcf18f82f5f6d3e89005211a0aade3f3a071764736f6c634300080d0033",
  "immutableReferences": {},
  "source": "//SPDX-License-Identifier: MIT\n\npragma solidity >= 0.7.0 < 0.9.0;\n\nimport \"@openzeppelin/contracts/access/Ownable.sol\";\nimport \"@openzeppelin/contracts/utils/math/SafeMath.sol\";\n\ncontract FamilyWallet is Ownable {\n\n    using SafeMath for uint;\n\n    uint public numOfBeneficiaries;\n    uint256 transactionCount;\n    bool public isStopped = false;\n\n    struct TransferStruct {\n        address sender;\n        address receiver;\n        uint amount;\n        string message;\n        uint256 timestamp;\n        string keyword;\n    }\n\n    TransferStruct[] transactions;\n\n    mapping(address => uint) public allowance;\n\n    modifier ownerOrAllowed(uint _amount) {\n        require(isOwner() || allowance[msg.sender] >= _amount, \"You are not allowed!\");\n        _;\n    }\n\n    modifier onlyWhenNotStopped {\n        require(!isStopped);\n        _;\n    }\n\n    modifier onlyWhenStopped {\n        require(isStopped);\n        _;\n    }\n\n    event AllowanceChanged(address indexed _forWho, address indexed _byWhom, uint _oldAmount, uint _newAmount);\n    event MoneySent (address indexed _beneficiary, uint _amount);\n    event MoneyReceived (address indexed _from, uint _amount);\n    event Transfer(address from, address to, uint amount, string message, uint256 timestamp, string keyword);\n\n    receive() external payable {\n        emit MoneyReceived(msg.sender, msg.value);\n    }\n\n    function emergencyWithdraw() external onlyWhenStopped onlyOwner {\n        (bool success, ) = owner().call{value: address(this).balance}(\"\");\n        require(success, \"Transfer failed.\");\n    }\n\n    function destroy() external onlyWhenStopped onlyOwner {\n        selfdestruct(payable(address(this)));\n    }\n\n    function stopContract() external onlyOwner {\n        isStopped = true;\n    }\n\n    function resumeContract() external onlyOwner {\n        isStopped = false;\n    }\n\n    function addAllowance(address _who, uint _amount) public onlyOwner {\n        allowance[_who] = _amount;\n        emit AllowanceChanged(_who, msg.sender, allowance[_who], _amount);\n    }\n\n    function reduceAllowance(address _who, uint _amount) public onlyOwner {\n        emit AllowanceChanged(_who, msg.sender, allowance[_who], allowance[_who].sub(_amount));\n        allowance[_who] =  allowance[_who].sub(_amount);\n    }\n\n    function getAllowance(address _who) public view returns (uint) {\n        return allowance[_who];\n    }   \n\n    function addToBlockchain(address payable to, uint amount, string memory message, string memory keyword) public {\n        transactionCount += 1;\n        emit Transfer(msg.sender, to, amount, message, block.timestamp, keyword);\n        transactions.push(TransferStruct(msg.sender, to, amount, message, block.timestamp, keyword));\n    }\n\n    function getAllTransactions() public view returns (TransferStruct[] memory) {\n        return transactions;\n    }\n    \n    function getTransactionCount() public view returns (uint256) {\n        return transactionCount;\n    }\n\n    function getTransactionsLength() public view returns(uint256) {\n        return transactions.length;\n    }\n\n    function withdrawMoney(address payable _to, uint _amount) public ownerOrAllowed(_amount) {\n        require(_amount <= address(this).balance, \"Insufficient funds!\");\n        if(!isOwner()) {\n            reduceAllowance(msg.sender, _amount);\n        }\n        emit MoneySent(_to, _amount);\n        _to.transfer(_amount);\n    }\n\n    function renounceOwnership() public view override onlyOwner {\n        revert(\"Cannot renounce ownership!\");\n    }\n\n    function isOwner() internal view returns(bool) {\n        return owner() == msg.sender;\n    }\n\n}",
  "sourcePath": "/Users/erdal/Desktop/code/wallet/contracts/FamilyWallet.sol",
  "compiler": {
    "name": "solc",
    "version": "0.8.13+commit.abaa5c0e.Emscripten.clang"
  },
  "schemaVersion": "3.4.7",
  "updatedAt": "2022-05-14T16:41:32.830Z",
  "networkType": "ethereum",
  "devdoc": {
    "kind": "dev",
    "methods": {
      "owner()": {
        "details": "Returns the address of the current owner."
      },
      "renounceOwnership()": {
        "details": "Leaves the contract without owner. It will not be possible to call `onlyOwner` functions anymore. Can only be called by the current owner. NOTE: Renouncing ownership will leave the contract without an owner, thereby removing any functionality that is only available to the owner."
      },
      "transferOwnership(address)": {
        "details": "Transfers ownership of the contract to a new account (`newOwner`). Can only be called by the current owner."
      }
    },
    "version": 1
  },
  "userdoc": {
    "kind": "user",
    "methods": {},
    "version": 1
  }
}