{
  "contractName": "FamilyWallet",
  "abi": [
    {
      "anonymous": false,
      "inputs": [
        {
          "indexed": true,
          "internalType": "address",
          "name": "_forWho",
          "type": "address"
        },
        {
          "indexed": true,
          "internalType": "address",
          "name": "_byWhom",
          "type": "address"
        },
        {
          "indexed": false,
          "internalType": "uint256",
          "name": "_oldAmount",
          "type": "uint256"
        },
        {
          "indexed": false,
          "internalType": "uint256",
          "name": "_newAmount",
          "type": "uint256"
        }
      ],
      "name": "AllowanceChanged",
      "type": "event"
    },
    {
      "anonymous": false,
      "inputs": [
        {
          "indexed": true,
          "internalType": "address",
          "name": "_from",
          "type": "address"
        },
        {
          "indexed": false,
          "internalType": "uint256",
          "name": "_amount",
          "type": "uint256"
        }
      ],
      "name": "MoneyReceived",
      "type": "event"
    },
    {
      "anonymous": false,
      "inputs": [
        {
          "indexed": true,
          "internalType": "address",
          "name": "_beneficiary",
          "type": "address"
        },
        {
          "indexed": false,
          "internalType": "uint256",
          "name": "_amount",
          "type": "uint256"
        }
      ],
      "name": "MoneySent",
      "type": "event"
    },
    {
      "anonymous": false,
      "inputs": [
        {
          "indexed": true,
          "internalType": "address",
          "name": "previousOwner",
          "type": "address"
        },
        {
          "indexed": true,
          "internalType": "address",
          "name": "newOwner",
          "type": "address"
        }
      ],
      "name": "OwnershipTransferred",
      "type": "event"
    },
    {
      "anonymous": false,
      "inputs": [
        {
          "indexed": false,
          "internalType": "address",
          "name": "from",
          "type": "address"
        },
        {
          "indexed": false,
          "internalType": "address",
          "name": "to",
          "type": "address"
        },
        {
          "indexed": false,
          "internalType": "uint256",
          "name": "amount",
          "type": "uint256"
        },
        {
          "indexed": false,
          "internalType": "string",
          "name": "message",
          "type": "string"
        },
        {
          "indexed": false,
          "internalType": "uint256",
          "name": "timestamp",
          "type": "uint256"
        },
        {
          "indexed": false,
          "internalType": "string",
          "name": "keyword",
          "type": "string"
        }
      ],
      "name": "Transfer",
      "type": "event"
    },
    {
      "inputs": [
        {
          "internalType": "address",
          "name": "",
          "type": "address"
        }
      ],
      "name": "allowance",
      "outputs": [
        {
          "internalType": "uint256",
          "name": "",
          "type": "uint256"
        }
      ],
      "stateMutability": "view",
      "type": "function",
      "constant": true
    },
    {
      "inputs": [],
      "name": "numOfBeneficiaries",
      "outputs": [
        {
          "internalType": "uint256",
          "name": "",
          "type": "uint256"
        }
      ],
      "stateMutability": "view",
      "type": "function",
      "constant": true
    },
    {
      "inputs": [],
      "name": "owner",
      "outputs": [
        {
          "internalType": "address",
          "name": "",
          "type": "address"
        }
      ],
      "stateMutability": "view",
      "type": "function",
      "constant": true
    },
    {
      "inputs": [
        {
          "internalType": "address",
          "name": "newOwner",
          "type": "address"
        }
      ],
      "name": "transferOwnership",
      "outputs": [],
      "stateMutability": "nonpayable",
      "type": "function"
    },
    {
      "stateMutability": "payable",
      "type": "receive",
      "payable": true
    },
    {
      "inputs": [
        {
          "internalType": "address",
          "name": "_who",
          "type": "address"
        },
        {
          "internalType": "uint256",
          "name": "_amount",
          "type": "uint256"
        }
      ],
      "name": "addAllowance",
      "outputs": [],
      "stateMutability": "nonpayable",
      "type": "function"
    },
    {
      "inputs": [
        {
          "internalType": "address",
          "name": "_who",
          "type": "address"
        },
        {
          "internalType": "uint256",
          "name": "_amount",
          "type": "uint256"
        }
      ],
      "name": "reduceAllowance",
      "outputs": [],
      "stateMutability": "nonpayable",
      "type": "function"
    },
    {
      "inputs": [
        {
          "internalType": "address",
          "name": "_who",
          "type": "address"
        }
      ],
      "name": "getAllowance",
      "outputs": [
        {
          "internalType": "uint256",
          "name": "",
          "type": "uint256"
        }
      ],
      "stateMutability": "view",
      "type": "function",
      "constant": true
    },
    {
      "inputs": [
        {
          "internalType": "address payable",
          "name": "to",
          "type": "address"
        },
        {
          "internalType": "uint256",
          "name": "amount",
          "type": "uint256"
        },
        {
          "internalType": "string",
          "name": "message",
          "type": "string"
        },
        {
          "internalType": "string",
          "name": "keyword",
          "type": "string"
        }
      ],
      "name": "addToBlockchain",
      "outputs": [],
      "stateMutability": "nonpayable",
      "type": "function"
    },
    {
      "inputs": [],
      "name": "getAllTransactions",
      "outputs": [
        {
          "components": [
            {
              "internalType": "address",
              "name": "sender",
              "type": "address"
            },
            {
              "internalType": "address",
              "name": "receiver",
              "type": "address"
            },
            {
              "internalType": "uint256",
              "name": "amount",
              "type": "uint256"
            },
            {
              "internalType": "string",
              "name": "message",
              "type": "string"
            },
            {
              "internalType": "uint256",
              "name": "timestamp",
              "type": "uint256"
            },
            {
              "internalType": "string",
              "name": "keyword",
              "type": "string"
            }
          ],
          "internalType": "struct FamilyWallet.TransferStruct[]",
          "name": "",
          "type": "tuple[]"
        }
      ],
      "stateMutability": "view",
      "type": "function",
      "constant": true
    },
    {
      "inputs": [],
      "name": "getTransactionCount",
      "outputs": [
        {
          "internalType": "uint256",
          "name": "",
          "type": "uint256"
        }
      ],
      "stateMutability": "view",
      "type": "function",
      "constant": true
    },
    {
      "inputs": [],
      "name": "getTransactionsLength",
      "outputs": [
        {
          "internalType": "uint256",
          "name": "",
          "type": "uint256"
        }
      ],
      "stateMutability": "view",
      "type": "function",
      "constant": true
    },
    {
      "inputs": [
        {
          "internalType": "address payable",
          "name": "_to",
          "type": "address"
        },
        {
          "internalType": "uint256",
          "name": "_amount",
          "type": "uint256"
        }
      ],
      "name": "withdrawMoney",
      "outputs": [],
      "stateMutability": "nonpayable",
      "type": "function"
    },
    {
      "inputs": [],
      "name": "renounceOwnership",
      "outputs": [],
      "stateMutability": "view",
      "type": "function",
      "constant": true
    }
  ],
  "bytecode": "0x608060405234801561001057600080fd5b5061002d61002261003260201b60201c565b61003a60201b60201c565b6100fe565b600033905090565b60008060009054906101000a900473ffffffffffffffffffffffffffffffffffffffff169050816000806101000a81548173ffffffffffffffffffffffffffffffffffffffff021916908373ffffffffffffffffffffffffffffffffffffffff1602179055508173ffffffffffffffffffffffffffffffffffffffff168173ffffffffffffffffffffffffffffffffffffffff167f8be0079c531659141344cd1fd0a4f28419497f9722a3daafe3b4186f6b6457e060405160405180910390a35050565b611b268061010d6000396000f3fe6080604052600436106100c65760003560e01c8063cc2d7ead1161007f578063f219362711610059578063f2193627146102af578063f274c897146102da578063f2fde38b14610303578063f3c40c4b1461032c5761011b565b8063cc2d7ead1461021e578063d61f31c514610247578063eb5a662e146102725761011b565b806327506f53146101205780632e7700f01461014b5780633e5beab914610176578063715018a6146101b35780638da5cb5b146101ca5780638fdf08df146101f55761011b565b3661011b573373ffffffffffffffffffffffffffffffffffffffff167f27b15ed4cf832749ed39f33a64e4707ed60a761485e41ffec7343ecaddc0c02a346040516101119190611087565b60405180910390a2005b600080fd5b34801561012c57600080fd5b50610135610355565b60405161014291906112dd565b60405180910390f35b34801561015757600080fd5b50610160610598565b60405161016d9190611087565b60405180910390f35b34801561018257600080fd5b5061019d6004803603810190610198919061133f565b6105a2565b6040516101aa9190611087565b60405180910390f35b3480156101bf57600080fd5b506101c86105ba565b005b3480156101d657600080fd5b506101df610671565b6040516101ec919061137b565b60405180910390f35b34801561020157600080fd5b5061021c600480360381019061021791906113c2565b61069a565b005b34801561022a57600080fd5b5061024560048036038101906102409190611575565b6108a6565b005b34801561025357600080fd5b5061025c610a69565b6040516102699190611087565b60405180910390f35b34801561027e57600080fd5b506102996004803603810190610294919061133f565b610a6f565b6040516102a69190611087565b60405180910390f35b3480156102bb57600080fd5b506102c4610ab8565b6040516102d19190611087565b60405180910390f35b3480156102e657600080fd5b5061030160048036038101906102fc9190611614565b610ac5565b005b34801561030f57600080fd5b5061032a6004803603810190610325919061133f565b610c4b565b005b34801561033857600080fd5b50610353600480360381019061034e91906113c2565b610d42565b005b60606003805480602002602001604051908101604052809291908181526020016000905b8282101561058f57838290600052602060002090600602016040518060c00160405290816000820160009054906101000a900473ffffffffffffffffffffffffffffffffffffffff1673ffffffffffffffffffffffffffffffffffffffff1673ffffffffffffffffffffffffffffffffffffffff1681526020016001820160009054906101000a900473ffffffffffffffffffffffffffffffffffffffff1673ffffffffffffffffffffffffffffffffffffffff1673ffffffffffffffffffffffffffffffffffffffff1681526020016002820154815260200160038201805461046290611683565b80601f016020809104026020016040519081016040528092919081815260200182805461048e90611683565b80156104db5780601f106104b0576101008083540402835291602001916104db565b820191906000526020600020905b8154815290600101906020018083116104be57829003601f168201915b50505050508152602001600482015481526020016005820180546104fe90611683565b80601f016020809104026020016040519081016040528092919081815260200182805461052a90611683565b80156105775780601f1061054c57610100808354040283529160200191610577565b820191906000526020600020905b81548152906001019060200180831161055a57829003601f168201915b50505050508152505081526020019060010190610379565b50505050905090565b6000600254905090565b60046020528060005260406000206000915090505481565b6105c2610eac565b73ffffffffffffffffffffffffffffffffffffffff166105e0610671565b73ffffffffffffffffffffffffffffffffffffffff1614610636576040517f08c379a000000000000000000000000000000000000000000000000000000000815260040161062d90611711565b60405180910390fd5b6040517f08c379a00000000000000000000000000000000000000000000000000000000081526004016106689061177d565b60405180910390fd5b60008060009054906101000a900473ffffffffffffffffffffffffffffffffffffffff16905090565b6106a2610eac565b73ffffffffffffffffffffffffffffffffffffffff166106c0610671565b73ffffffffffffffffffffffffffffffffffffffff1614610716576040517f08c379a000000000000000000000000000000000000000000000000000000000815260040161070d90611711565b60405180910390fd5b3373ffffffffffffffffffffffffffffffffffffffff168273ffffffffffffffffffffffffffffffffffffffff167f3691d1a86d99355e52b689ca70a7bdf6d80763237a6aa06e5fa43964eac7244b600460008673ffffffffffffffffffffffffffffffffffffffff1673ffffffffffffffffffffffffffffffffffffffff168152602001908152602001600020546107f785600460008973ffffffffffffffffffffffffffffffffffffffff1673ffffffffffffffffffffffffffffffffffffffff16815260200190815260200160002054610eb490919063ffffffff16565b60405161080592919061179d565b60405180910390a361085f81600460008573ffffffffffffffffffffffffffffffffffffffff1673ffffffffffffffffffffffffffffffffffffffff16815260200190815260200160002054610eb490919063ffffffff16565b600460008473ffffffffffffffffffffffffffffffffffffffff1673ffffffffffffffffffffffffffffffffffffffff168152602001908152602001600020819055505050565b6001600260008282546108b991906117f5565b925050819055507f416cfa4330a4565f45c2fd2dd4826a83a37443aba2ce6f79477c7355afac35fa3385858542866040516108f9969594939291906118e3565b60405180910390a160036040518060c001604052803373ffffffffffffffffffffffffffffffffffffffff1681526020018673ffffffffffffffffffffffffffffffffffffffff16815260200185815260200184815260200142815260200183815250908060018154018082558091505060019003906000526020600020906006020160009091909190915060008201518160000160006101000a81548173ffffffffffffffffffffffffffffffffffffffff021916908373ffffffffffffffffffffffffffffffffffffffff16021790555060208201518160010160006101000a81548173ffffffffffffffffffffffffffffffffffffffff021916908373ffffffffffffffffffffffffffffffffffffffff160217905550604082015181600201556060820151816003019080519060200190610a39929190610fcb565b506080820151816004015560a0820151816005019080519060200190610a60929190610fcb565b50505050505050565b60015481565b6000600460008373ffffffffffffffffffffffffffffffffffffffff1673ffffffffffffffffffffffffffffffffffffffff168152602001908152602001600020549050919050565b6000600380549050905090565b80610ace610eca565b80610b18575080600460003373ffffffffffffffffffffffffffffffffffffffff1673ffffffffffffffffffffffffffffffffffffffff1681526020019081526020016000205410155b610b57576040517f08c379a0000000000000000000000000000000000000000000000000000000008152600401610b4e9061199e565b60405180910390fd5b47821115610b9a576040517f08c379a0000000000000000000000000000000000000000000000000000000008152600401610b9190611a0a565b60405180910390fd5b610ba2610eca565b610bb157610bb0338361069a565b5b8273ffffffffffffffffffffffffffffffffffffffff166108fc839081150290604051600060405180830381858888f19350505050158015610bf7573d6000803e3d6000fd5b508273ffffffffffffffffffffffffffffffffffffffff167f7f51d406915971d4ac1c91af96be5187ea6ab64753785aad519a533def80a41e83604051610c3e9190611087565b60405180910390a2505050565b610c53610eac565b73ffffffffffffffffffffffffffffffffffffffff16610c71610671565b73ffffffffffffffffffffffffffffffffffffffff1614610cc7576040517f08c379a0000000000000000000000000000000000000000000000000000000008152600401610cbe90611711565b60405180910390fd5b600073ffffffffffffffffffffffffffffffffffffffff168173ffffffffffffffffffffffffffffffffffffffff1603610d36576040517f08c379a0000000000000000000000000000000000000000000000000000000008152600401610d2d90611a9c565b60405180910390fd5b610d3f81610f07565b50565b610d4a610eac565b73ffffffffffffffffffffffffffffffffffffffff16610d68610671565b73ffffffffffffffffffffffffffffffffffffffff1614610dbe576040517f08c379a0000000000000000000000000000000000000000000000000000000008152600401610db590611711565b60405180910390fd5b80600460008473ffffffffffffffffffffffffffffffffffffffff1673ffffffffffffffffffffffffffffffffffffffff168152602001908152602001600020819055503373ffffffffffffffffffffffffffffffffffffffff168273ffffffffffffffffffffffffffffffffffffffff167f3691d1a86d99355e52b689ca70a7bdf6d80763237a6aa06e5fa43964eac7244b600460008673ffffffffffffffffffffffffffffffffffffffff1673ffffffffffffffffffffffffffffffffffffffff1681526020019081526020016000205484604051610ea092919061179d565b60405180910390a35050565b600033905090565b60008183610ec29190611abc565b905092915050565b60003373ffffffffffffffffffffffffffffffffffffffff16610eeb610671565b73ffffffffffffffffffffffffffffffffffffffff1614905090565b60008060009054906101000a900473ffffffffffffffffffffffffffffffffffffffff169050816000806101000a81548173ffffffffffffffffffffffffffffffffffffffff021916908373ffffffffffffffffffffffffffffffffffffffff1602179055508173ffffffffffffffffffffffffffffffffffffffff168173ffffffffffffffffffffffffffffffffffffffff167f8be0079c531659141344cd1fd0a4f28419497f9722a3daafe3b4186f6b6457e060405160405180910390a35050565b828054610fd790611683565b90600052602060002090601f016020900481019282610ff95760008555611040565b82601f1061101257805160ff1916838001178555611040565b82800160010185558215611040579182015b8281111561103f578251825591602001919060010190611024565b5b50905061104d9190611051565b5090565b5b8082111561106a576000816000905550600101611052565b5090565b6000819050919050565b6110818161106e565b82525050565b600060208201905061109c6000830184611078565b92915050565b600081519050919050565b600082825260208201905092915050565b6000819050602082019050919050565b600073ffffffffffffffffffffffffffffffffffffffff82169050919050565b60006110f9826110ce565b9050919050565b611109816110ee565b82525050565b6111188161106e565b82525050565b600081519050919050565b600082825260208201905092915050565b60005b8381101561115857808201518184015260208101905061113d565b83811115611167576000848401525b50505050565b6000601f19601f8301169050919050565b60006111898261111e565b6111938185611129565b93506111a381856020860161113a565b6111ac8161116d565b840191505092915050565b600060c0830160008301516111cf6000860182611100565b5060208301516111e26020860182611100565b5060408301516111f5604086018261110f565b506060830151848203606086015261120d828261117e565b9150506080830151611222608086018261110f565b5060a083015184820360a086015261123a828261117e565b9150508091505092915050565b600061125383836111b7565b905092915050565b6000602082019050919050565b6000611273826110a2565b61127d81856110ad565b93508360208202850161128f856110be565b8060005b858110156112cb57848403895281516112ac8582611247565b94506112b78361125b565b925060208a01995050600181019050611293565b50829750879550505050505092915050565b600060208201905081810360008301526112f78184611268565b905092915050565b6000604051905090565b600080fd5b600080fd5b61131c816110ee565b811461132757600080fd5b50565b60008135905061133981611313565b92915050565b60006020828403121561135557611354611309565b5b60006113638482850161132a565b91505092915050565b611375816110ee565b82525050565b6000602082019050611390600083018461136c565b92915050565b61139f8161106e565b81146113aa57600080fd5b50565b6000813590506113bc81611396565b92915050565b600080604083850312156113d9576113d8611309565b5b60006113e78582860161132a565b92505060206113f8858286016113ad565b9150509250929050565b600061140d826110ce565b9050919050565b61141d81611402565b811461142857600080fd5b50565b60008135905061143a81611414565b92915050565b600080fd5b600080fd5b7f4e487b7100000000000000000000000000000000000000000000000000000000600052604160045260246000fd5b6114828261116d565b810181811067ffffffffffffffff821117156114a1576114a061144a565b5b80604052505050565b60006114b46112ff565b90506114c08282611479565b919050565b600067ffffffffffffffff8211156114e0576114df61144a565b5b6114e98261116d565b9050602081019050919050565b82818337600083830152505050565b6000611518611513846114c5565b6114aa565b90508281526020810184848401111561153457611533611445565b5b61153f8482856114f6565b509392505050565b600082601f83011261155c5761155b611440565b5b813561156c848260208601611505565b91505092915050565b6000806000806080858703121561158f5761158e611309565b5b600061159d8782880161142b565b94505060206115ae878288016113ad565b935050604085013567ffffffffffffffff8111156115cf576115ce61130e565b5b6115db87828801611547565b925050606085013567ffffffffffffffff8111156115fc576115fb61130e565b5b61160887828801611547565b91505092959194509250565b6000806040838503121561162b5761162a611309565b5b60006116398582860161142b565b925050602061164a858286016113ad565b9150509250929050565b7f4e487b7100000000000000000000000000000000000000000000000000000000600052602260045260246000fd5b6000600282049050600182168061169b57607f821691505b6020821081036116ae576116ad611654565b5b50919050565b600082825260208201905092915050565b7f4f776e61626c653a2063616c6c6572206973206e6f7420746865206f776e6572600082015250565b60006116fb6020836116b4565b9150611706826116c5565b602082019050919050565b6000602082019050818103600083015261172a816116ee565b9050919050565b7f43616e6e6f742072656e6f756e6365206f776e65727368697021000000000000600082015250565b6000611767601a836116b4565b915061177282611731565b602082019050919050565b600060208201905081810360008301526117968161175a565b9050919050565b60006040820190506117b26000830185611078565b6117bf6020830184611078565b9392505050565b7f4e487b7100000000000000000000000000000000000000000000000000000000600052601160045260246000fd5b60006118008261106e565b915061180b8361106e565b9250827fffffffffffffffffffffffffffffffffffffffffffffffffffffffffffffffff038211156118405761183f6117c6565b5b828201905092915050565b6000819050919050565b600061187061186b611866846110ce565b61184b565b6110ce565b9050919050565b600061188282611855565b9050919050565b600061189482611877565b9050919050565b6118a481611889565b82525050565b60006118b58261111e565b6118bf81856116b4565b93506118cf81856020860161113a565b6118d88161116d565b840191505092915050565b600060c0820190506118f8600083018961136c565b611905602083018861189b565b6119126040830187611078565b818103606083015261192481866118aa565b90506119336080830185611078565b81810360a083015261194581846118aa565b9050979650505050505050565b7f596f7520617265206e6f7420616c6c6f77656421000000000000000000000000600082015250565b60006119886014836116b4565b915061199382611952565b602082019050919050565b600060208201905081810360008301526119b78161197b565b9050919050565b7f496e73756666696369656e742066756e64732100000000000000000000000000600082015250565b60006119f46013836116b4565b91506119ff826119be565b602082019050919050565b60006020820190508181036000830152611a23816119e7565b9050919050565b7f4f776e61626c653a206e6577206f776e657220697320746865207a65726f206160008201527f6464726573730000000000000000000000000000000000000000000000000000602082015250565b6000611a866026836116b4565b9150611a9182611a2a565b604082019050919050565b60006020820190508181036000830152611ab581611a79565b9050919050565b6000611ac78261106e565b9150611ad28361106e565b925082821015611ae557611ae46117c6565b5b82820390509291505056fea264697066735822122088d6c53e8d1dc858489b863a759e9f464da8206451080835fc477ca85ae511db64736f6c634300080d0033",
  "immutableReferences": {},
  "source": "//SPDX-License-Identifier: MIT\n\npragma solidity >= 0.7.0 < 0.9.0;\n\nimport \"@openzeppelin/contracts/access/Ownable.sol\";\nimport \"@openzeppelin/contracts/utils/math/SafeMath.sol\";\n\ncontract FamilyWallet is Ownable{\n\n    using SafeMath for uint;\n\n    uint public numOfBeneficiaries;\n    uint256 transactionCount;\n\n    struct TransferStruct {\n        address sender;\n        address receiver;\n        uint amount;\n        string message;\n        uint256 timestamp;\n        string keyword;\n    }\n\n    TransferStruct[] transactions;\n\n    mapping(address => uint) public allowance;\n\n\n    modifier ownerOrAllowed(uint _amount) {\n        require(isOwner() || allowance[msg.sender] >= _amount, \"You are not allowed!\");\n        _;\n    }\n\n    event AllowanceChanged(address indexed _forWho, address indexed _byWhom, uint _oldAmount, uint _newAmount);\n    event MoneySent (address indexed _beneficiary, uint _amount);\n    event MoneyReceived (address indexed _from, uint _amount);\n    event Transfer(address from, address to, uint amount, string message, uint256 timestamp, string keyword);\n\n    receive() external payable {\n        emit MoneyReceived(msg.sender, msg.value);\n    }\n\n    function addAllowance(address _who, uint _amount) public onlyOwner {\n        allowance[_who] = _amount;\n        emit AllowanceChanged(_who, msg.sender, allowance[_who], _amount);\n    }\n\n    function reduceAllowance(address _who, uint _amount) public onlyOwner {\n        emit AllowanceChanged(_who, msg.sender, allowance[_who], allowance[_who].sub(_amount));\n        allowance[_who] =  allowance[_who].sub(_amount);\n    }\n\n    function getAllowance(address _who) public view returns (uint) {\n        return allowance[_who];\n    }   \n\n    function addToBlockchain(address payable to, uint amount, string memory message, string memory keyword) public {\n        transactionCount += 1;\n        emit Transfer(msg.sender, to, amount, message, block.timestamp, keyword);\n        transactions.push(TransferStruct(msg.sender, to, amount, message, block.timestamp, keyword));\n    }\n\n    function getAllTransactions() public view returns (TransferStruct[] memory) {\n        return transactions;\n    }\n    \n    function getTransactionCount() public view returns (uint256) {\n        return transactionCount;\n    }\n\n    function getTransactionsLength() public view returns(uint256) {\n        return transactions.length;\n    }\n\n    function withdrawMoney(address payable _to, uint _amount) public ownerOrAllowed(_amount) {\n        require(_amount <= address(this).balance, \"Insufficient funds!\");\n        if(!isOwner()) {\n            reduceAllowance(msg.sender, _amount);\n        }\n        _to.transfer(_amount);\n        emit MoneySent(_to, _amount);\n    }\n\n    function renounceOwnership() public view override onlyOwner {\n        revert(\"Cannot renounce ownership!\");\n    }\n\n    function isOwner() internal view returns(bool) {\n        return owner() == msg.sender;\n    }\n}",
  "sourcePath": "/Users/erdal/Desktop/code/wallet/contracts/FamilyWallet.sol",
  "compiler": {
    "name": "solc",
    "version": "0.8.13+commit.abaa5c0e.Emscripten.clang"
  },
  "schemaVersion": "3.4.7",
  "updatedAt": "2022-05-11T07:33:48.317Z",
  "networkType": "ethereum",
  "devdoc": {
    "kind": "dev",
    "methods": {
      "owner()": {
        "details": "Returns the address of the current owner."
      },
      "renounceOwnership()": {
        "details": "Leaves the contract without owner. It will not be possible to call `onlyOwner` functions anymore. Can only be called by the current owner. NOTE: Renouncing ownership will leave the contract without an owner, thereby removing any functionality that is only available to the owner."
      },
      "transferOwnership(address)": {
        "details": "Transfers ownership of the contract to a new account (`newOwner`). Can only be called by the current owner."
      }
    },
    "version": 1
  },
  "userdoc": {
    "kind": "user",
    "methods": {},
    "version": 1
  }
}