{
  "contractName": "FamilyWallet",
  "abi": [
    {
      "anonymous": false,
      "inputs": [
        {
          "indexed": true,
          "internalType": "address",
          "name": "_forWho",
          "type": "address"
        },
        {
          "indexed": true,
          "internalType": "address",
          "name": "_byWhom",
          "type": "address"
        },
        {
          "indexed": false,
          "internalType": "uint256",
          "name": "_oldAmount",
          "type": "uint256"
        },
        {
          "indexed": false,
          "internalType": "uint256",
          "name": "_newAmount",
          "type": "uint256"
        }
      ],
      "name": "AllowanceChanged",
      "type": "event"
    },
    {
      "anonymous": false,
      "inputs": [
        {
          "indexed": true,
          "internalType": "address",
          "name": "_from",
          "type": "address"
        },
        {
          "indexed": false,
          "internalType": "uint256",
          "name": "_amount",
          "type": "uint256"
        }
      ],
      "name": "MoneyReceived",
      "type": "event"
    },
    {
      "anonymous": false,
      "inputs": [
        {
          "indexed": true,
          "internalType": "address",
          "name": "_beneficiary",
          "type": "address"
        },
        {
          "indexed": false,
          "internalType": "uint256",
          "name": "_amount",
          "type": "uint256"
        }
      ],
      "name": "MoneySent",
      "type": "event"
    },
    {
      "anonymous": false,
      "inputs": [
        {
          "indexed": true,
          "internalType": "address",
          "name": "previousOwner",
          "type": "address"
        },
        {
          "indexed": true,
          "internalType": "address",
          "name": "newOwner",
          "type": "address"
        }
      ],
      "name": "OwnershipTransferred",
      "type": "event"
    },
    {
      "anonymous": false,
      "inputs": [
        {
          "indexed": false,
          "internalType": "address",
          "name": "from",
          "type": "address"
        },
        {
          "indexed": false,
          "internalType": "address",
          "name": "receiver",
          "type": "address"
        },
        {
          "indexed": false,
          "internalType": "uint256",
          "name": "amount",
          "type": "uint256"
        },
        {
          "indexed": false,
          "internalType": "string",
          "name": "message",
          "type": "string"
        },
        {
          "indexed": false,
          "internalType": "uint256",
          "name": "timestamp",
          "type": "uint256"
        },
        {
          "indexed": false,
          "internalType": "string",
          "name": "keyword",
          "type": "string"
        }
      ],
      "name": "Transfer",
      "type": "event"
    },
    {
      "inputs": [
        {
          "internalType": "address",
          "name": "",
          "type": "address"
        }
      ],
      "name": "allowance",
      "outputs": [
        {
          "internalType": "uint256",
          "name": "",
          "type": "uint256"
        }
      ],
      "stateMutability": "view",
      "type": "function",
      "constant": true
    },
    {
      "inputs": [],
      "name": "owner",
      "outputs": [
        {
          "internalType": "address",
          "name": "",
          "type": "address"
        }
      ],
      "stateMutability": "view",
      "type": "function",
      "constant": true
    },
    {
      "inputs": [
        {
          "internalType": "address",
          "name": "newOwner",
          "type": "address"
        }
      ],
      "name": "transferOwnership",
      "outputs": [],
      "stateMutability": "nonpayable",
      "type": "function"
    },
    {
      "stateMutability": "payable",
      "type": "receive",
      "payable": true
    },
    {
      "inputs": [
        {
          "internalType": "address",
          "name": "_who",
          "type": "address"
        },
        {
          "internalType": "uint256",
          "name": "_amount",
          "type": "uint256"
        }
      ],
      "name": "addAllowance",
      "outputs": [],
      "stateMutability": "nonpayable",
      "type": "function"
    },
    {
      "inputs": [
        {
          "internalType": "address payable",
          "name": "receiver",
          "type": "address"
        },
        {
          "internalType": "uint256",
          "name": "amount",
          "type": "uint256"
        },
        {
          "internalType": "string",
          "name": "message",
          "type": "string"
        },
        {
          "internalType": "string",
          "name": "keyword",
          "type": "string"
        }
      ],
      "name": "addToBlockchain",
      "outputs": [],
      "stateMutability": "nonpayable",
      "type": "function"
    },
    {
      "inputs": [],
      "name": "getAllTransactions",
      "outputs": [
        {
          "components": [
            {
              "internalType": "address",
              "name": "sender",
              "type": "address"
            },
            {
              "internalType": "address",
              "name": "receiver",
              "type": "address"
            },
            {
              "internalType": "uint256",
              "name": "amount",
              "type": "uint256"
            },
            {
              "internalType": "string",
              "name": "message",
              "type": "string"
            },
            {
              "internalType": "uint256",
              "name": "timestamp",
              "type": "uint256"
            },
            {
              "internalType": "string",
              "name": "keyword",
              "type": "string"
            }
          ],
          "internalType": "struct FamilyWallet.TransferStruct[]",
          "name": "",
          "type": "tuple[]"
        }
      ],
      "stateMutability": "view",
      "type": "function",
      "constant": true
    },
    {
      "inputs": [],
      "name": "getTransactionCount",
      "outputs": [
        {
          "internalType": "uint256",
          "name": "",
          "type": "uint256"
        }
      ],
      "stateMutability": "view",
      "type": "function",
      "constant": true
    },
    {
      "inputs": [
        {
          "internalType": "address payable",
          "name": "_to",
          "type": "address"
        },
        {
          "internalType": "uint256",
          "name": "_amount",
          "type": "uint256"
        }
      ],
      "name": "withdrawMoney",
      "outputs": [],
      "stateMutability": "nonpayable",
      "type": "function"
    },
    {
      "inputs": [],
      "name": "renounceOwnership",
      "outputs": [],
      "stateMutability": "view",
      "type": "function",
      "constant": true
    }
  ],
  "bytecode": "0x608060405234801561001057600080fd5b5061002d61002261003260201b60201c565b61003a60201b60201c565b6100fe565b600033905090565b60008060009054906101000a900473ffffffffffffffffffffffffffffffffffffffff169050816000806101000a81548173ffffffffffffffffffffffffffffffffffffffff021916908373ffffffffffffffffffffffffffffffffffffffff1602179055508173ffffffffffffffffffffffffffffffffffffffff168173ffffffffffffffffffffffffffffffffffffffff167f8be0079c531659141344cd1fd0a4f28419497f9722a3daafe3b4186f6b6457e060405160405180910390a35050565b6119e88061010d6000396000f3fe60806040526004361061008a5760003560e01c80638da5cb5b116100595780638da5cb5b1461018e578063cc2d7ead146101b9578063f274c897146101e2578063f2fde38b1461020b578063f3c40c4b14610234576100df565b806327506f53146100e45780632e7700f01461010f5780633e5beab91461013a578063715018a614610177576100df565b366100df573373ffffffffffffffffffffffffffffffffffffffff167f27b15ed4cf832749ed39f33a64e4707ed60a761485e41ffec7343ecaddc0c02a346040516100d59190610f49565b60405180910390a2005b600080fd5b3480156100f057600080fd5b506100f961025d565b604051610106919061119f565b60405180910390f35b34801561011b57600080fd5b506101246104a0565b6040516101319190610f49565b60405180910390f35b34801561014657600080fd5b50610161600480360381019061015c9190611201565b6104aa565b60405161016e9190610f49565b60405180910390f35b34801561018357600080fd5b5061018c6104c2565b005b34801561019a57600080fd5b506101a3610579565b6040516101b0919061123d565b60405180910390f35b3480156101c557600080fd5b506101e060048036038101906101db91906113f7565b6105a2565b005b3480156101ee57600080fd5b5061020960048036038101906102049190611496565b610764565b005b34801561021757600080fd5b50610232600480360381019061022d9190611201565b6108ea565b005b34801561024057600080fd5b5061025b600480360381019061025691906114d6565b6109e1565b005b60606002805480602002602001604051908101604052809291908181526020016000905b8282101561049757838290600052602060002090600602016040518060c00160405290816000820160009054906101000a900473ffffffffffffffffffffffffffffffffffffffff1673ffffffffffffffffffffffffffffffffffffffff1673ffffffffffffffffffffffffffffffffffffffff1681526020016001820160009054906101000a900473ffffffffffffffffffffffffffffffffffffffff1673ffffffffffffffffffffffffffffffffffffffff1673ffffffffffffffffffffffffffffffffffffffff1681526020016002820154815260200160038201805461036a90611545565b80601f016020809104026020016040519081016040528092919081815260200182805461039690611545565b80156103e35780601f106103b8576101008083540402835291602001916103e3565b820191906000526020600020905b8154815290600101906020018083116103c657829003601f168201915b505050505081526020016004820154815260200160058201805461040690611545565b80601f016020809104026020016040519081016040528092919081815260200182805461043290611545565b801561047f5780601f106104545761010080835404028352916020019161047f565b820191906000526020600020905b81548152906001019060200180831161046257829003601f168201915b50505050508152505081526020019060010190610281565b50505050905090565b6000600154905090565b60036020528060005260406000206000915090505481565b6104ca610b4b565b73ffffffffffffffffffffffffffffffffffffffff166104e8610579565b73ffffffffffffffffffffffffffffffffffffffff161461053e576040517f08c379a0000000000000000000000000000000000000000000000000000000008152600401610535906115d3565b60405180910390fd5b6040517f08c379a00000000000000000000000000000000000000000000000000000000081526004016105709061163f565b60405180910390fd5b60008060009054906101000a900473ffffffffffffffffffffffffffffffffffffffff16905090565b60018060008282546105b4919061168e565b9250508190555060026040518060c001604052803373ffffffffffffffffffffffffffffffffffffffff1681526020018673ffffffffffffffffffffffffffffffffffffffff16815260200185815260200184815260200142815260200183815250908060018154018082558091505060019003906000526020600020906006020160009091909190915060008201518160000160006101000a81548173ffffffffffffffffffffffffffffffffffffffff021916908373ffffffffffffffffffffffffffffffffffffffff16021790555060208201518160010160006101000a81548173ffffffffffffffffffffffffffffffffffffffff021916908373ffffffffffffffffffffffffffffffffffffffff1602179055506040820151816002015560608201518160030190805190602001906106f3929190610e8d565b506080820151816004015560a082015181600501908051906020019061071a929190610e8d565b5050507f416cfa4330a4565f45c2fd2dd4826a83a37443aba2ce6f79477c7355afac35fa3385858542866040516107569695949392919061177c565b60405180910390a150505050565b8061076d610b53565b806107b7575080600360003373ffffffffffffffffffffffffffffffffffffffff1673ffffffffffffffffffffffffffffffffffffffff1681526020019081526020016000205410155b6107f6576040517f08c379a00000000000000000000000000000000000000000000000000000000081526004016107ed90611837565b60405180910390fd5b47821115610839576040517f08c379a0000000000000000000000000000000000000000000000000000000008152600401610830906118a3565b60405180910390fd5b610841610b53565b6108505761084f3383610b90565b5b8273ffffffffffffffffffffffffffffffffffffffff167f7f51d406915971d4ac1c91af96be5187ea6ab64753785aad519a533def80a41e836040516108969190610f49565b60405180910390a28273ffffffffffffffffffffffffffffffffffffffff166108fc839081150290604051600060405180830381858888f193505050501580156108e4573d6000803e3d6000fd5b50505050565b6108f2610b4b565b73ffffffffffffffffffffffffffffffffffffffff16610910610579565b73ffffffffffffffffffffffffffffffffffffffff1614610966576040517f08c379a000000000000000000000000000000000000000000000000000000000815260040161095d906115d3565b60405180910390fd5b600073ffffffffffffffffffffffffffffffffffffffff168173ffffffffffffffffffffffffffffffffffffffff16036109d5576040517f08c379a00000000000000000000000000000000000000000000000000000000081526004016109cc90611935565b60405180910390fd5b6109de81610db3565b50565b6109e9610b4b565b73ffffffffffffffffffffffffffffffffffffffff16610a07610579565b73ffffffffffffffffffffffffffffffffffffffff1614610a5d576040517f08c379a0000000000000000000000000000000000000000000000000000000008152600401610a54906115d3565b60405180910390fd5b3373ffffffffffffffffffffffffffffffffffffffff168273ffffffffffffffffffffffffffffffffffffffff167f3691d1a86d99355e52b689ca70a7bdf6d80763237a6aa06e5fa43964eac7244b600360008673ffffffffffffffffffffffffffffffffffffffff1673ffffffffffffffffffffffffffffffffffffffff1681526020019081526020016000205484604051610afb929190611955565b60405180910390a380600360008473ffffffffffffffffffffffffffffffffffffffff1673ffffffffffffffffffffffffffffffffffffffff168152602001908152602001600020819055505050565b600033905090565b60003373ffffffffffffffffffffffffffffffffffffffff16610b74610579565b73ffffffffffffffffffffffffffffffffffffffff1614905090565b80610b99610b53565b80610be3575080600360003373ffffffffffffffffffffffffffffffffffffffff1673ffffffffffffffffffffffffffffffffffffffff1681526020019081526020016000205410155b610c22576040517f08c379a0000000000000000000000000000000000000000000000000000000008152600401610c1990611837565b60405180910390fd5b3373ffffffffffffffffffffffffffffffffffffffff168373ffffffffffffffffffffffffffffffffffffffff167f3691d1a86d99355e52b689ca70a7bdf6d80763237a6aa06e5fa43964eac7244b600360008773ffffffffffffffffffffffffffffffffffffffff1673ffffffffffffffffffffffffffffffffffffffff16815260200190815260200160002054610d0386600360008a73ffffffffffffffffffffffffffffffffffffffff1673ffffffffffffffffffffffffffffffffffffffff16815260200190815260200160002054610e7790919063ffffffff16565b604051610d11929190611955565b60405180910390a3610d6b82600360008673ffffffffffffffffffffffffffffffffffffffff1673ffffffffffffffffffffffffffffffffffffffff16815260200190815260200160002054610e7790919063ffffffff16565b600360008573ffffffffffffffffffffffffffffffffffffffff1673ffffffffffffffffffffffffffffffffffffffff16815260200190815260200160002081905550505050565b60008060009054906101000a900473ffffffffffffffffffffffffffffffffffffffff169050816000806101000a81548173ffffffffffffffffffffffffffffffffffffffff021916908373ffffffffffffffffffffffffffffffffffffffff1602179055508173ffffffffffffffffffffffffffffffffffffffff168173ffffffffffffffffffffffffffffffffffffffff167f8be0079c531659141344cd1fd0a4f28419497f9722a3daafe3b4186f6b6457e060405160405180910390a35050565b60008183610e85919061197e565b905092915050565b828054610e9990611545565b90600052602060002090601f016020900481019282610ebb5760008555610f02565b82601f10610ed457805160ff1916838001178555610f02565b82800160010185558215610f02579182015b82811115610f01578251825591602001919060010190610ee6565b5b509050610f0f9190610f13565b5090565b5b80821115610f2c576000816000905550600101610f14565b5090565b6000819050919050565b610f4381610f30565b82525050565b6000602082019050610f5e6000830184610f3a565b92915050565b600081519050919050565b600082825260208201905092915050565b6000819050602082019050919050565b600073ffffffffffffffffffffffffffffffffffffffff82169050919050565b6000610fbb82610f90565b9050919050565b610fcb81610fb0565b82525050565b610fda81610f30565b82525050565b600081519050919050565b600082825260208201905092915050565b60005b8381101561101a578082015181840152602081019050610fff565b83811115611029576000848401525b50505050565b6000601f19601f8301169050919050565b600061104b82610fe0565b6110558185610feb565b9350611065818560208601610ffc565b61106e8161102f565b840191505092915050565b600060c0830160008301516110916000860182610fc2565b5060208301516110a46020860182610fc2565b5060408301516110b76040860182610fd1565b50606083015184820360608601526110cf8282611040565b91505060808301516110e46080860182610fd1565b5060a083015184820360a08601526110fc8282611040565b9150508091505092915050565b60006111158383611079565b905092915050565b6000602082019050919050565b600061113582610f64565b61113f8185610f6f565b93508360208202850161115185610f80565b8060005b8581101561118d578484038952815161116e8582611109565b94506111798361111d565b925060208a01995050600181019050611155565b50829750879550505050505092915050565b600060208201905081810360008301526111b9818461112a565b905092915050565b6000604051905090565b600080fd5b600080fd5b6111de81610fb0565b81146111e957600080fd5b50565b6000813590506111fb816111d5565b92915050565b600060208284031215611217576112166111cb565b5b6000611225848285016111ec565b91505092915050565b61123781610fb0565b82525050565b6000602082019050611252600083018461122e565b92915050565b600061126382610f90565b9050919050565b61127381611258565b811461127e57600080fd5b50565b6000813590506112908161126a565b92915050565b61129f81610f30565b81146112aa57600080fd5b50565b6000813590506112bc81611296565b92915050565b600080fd5b600080fd5b7f4e487b7100000000000000000000000000000000000000000000000000000000600052604160045260246000fd5b6113048261102f565b810181811067ffffffffffffffff82111715611323576113226112cc565b5b80604052505050565b60006113366111c1565b905061134282826112fb565b919050565b600067ffffffffffffffff821115611362576113616112cc565b5b61136b8261102f565b9050602081019050919050565b82818337600083830152505050565b600061139a61139584611347565b61132c565b9050828152602081018484840111156113b6576113b56112c7565b5b6113c1848285611378565b509392505050565b600082601f8301126113de576113dd6112c2565b5b81356113ee848260208601611387565b91505092915050565b60008060008060808587031215611411576114106111cb565b5b600061141f87828801611281565b9450506020611430878288016112ad565b935050604085013567ffffffffffffffff811115611451576114506111d0565b5b61145d878288016113c9565b925050606085013567ffffffffffffffff81111561147e5761147d6111d0565b5b61148a878288016113c9565b91505092959194509250565b600080604083850312156114ad576114ac6111cb565b5b60006114bb85828601611281565b92505060206114cc858286016112ad565b9150509250929050565b600080604083850312156114ed576114ec6111cb565b5b60006114fb858286016111ec565b925050602061150c858286016112ad565b9150509250929050565b7f4e487b7100000000000000000000000000000000000000000000000000000000600052602260045260246000fd5b6000600282049050600182168061155d57607f821691505b6020821081036115705761156f611516565b5b50919050565b600082825260208201905092915050565b7f4f776e61626c653a2063616c6c6572206973206e6f7420746865206f776e6572600082015250565b60006115bd602083611576565b91506115c882611587565b602082019050919050565b600060208201905081810360008301526115ec816115b0565b9050919050565b7f43616e6e6f742072656e6f756e6365206f776e65727368697021000000000000600082015250565b6000611629601a83611576565b9150611634826115f3565b602082019050919050565b600060208201905081810360008301526116588161161c565b9050919050565b7f4e487b7100000000000000000000000000000000000000000000000000000000600052601160045260246000fd5b600061169982610f30565b91506116a483610f30565b9250827fffffffffffffffffffffffffffffffffffffffffffffffffffffffffffffffff038211156116d9576116d861165f565b5b828201905092915050565b6000819050919050565b60006117096117046116ff84610f90565b6116e4565b610f90565b9050919050565b600061171b826116ee565b9050919050565b600061172d82611710565b9050919050565b61173d81611722565b82525050565b600061174e82610fe0565b6117588185611576565b9350611768818560208601610ffc565b6117718161102f565b840191505092915050565b600060c082019050611791600083018961122e565b61179e6020830188611734565b6117ab6040830187610f3a565b81810360608301526117bd8186611743565b90506117cc6080830185610f3a565b81810360a08301526117de8184611743565b9050979650505050505050565b7f596f7520617265206e6f7420616c6c6f77656421000000000000000000000000600082015250565b6000611821601483611576565b915061182c826117eb565b602082019050919050565b6000602082019050818103600083015261185081611814565b9050919050565b7f496e73756666696369656e742066756e64732100000000000000000000000000600082015250565b600061188d601383611576565b915061189882611857565b602082019050919050565b600060208201905081810360008301526118bc81611880565b9050919050565b7f4f776e61626c653a206e6577206f776e657220697320746865207a65726f206160008201527f6464726573730000000000000000000000000000000000000000000000000000602082015250565b600061191f602683611576565b915061192a826118c3565b604082019050919050565b6000602082019050818103600083015261194e81611912565b9050919050565b600060408201905061196a6000830185610f3a565b6119776020830184610f3a565b9392505050565b600061198982610f30565b915061199483610f30565b9250828210156119a7576119a661165f565b5b82820390509291505056fea26469706673582212209ea88872e92cf3e60374ce5cad79aa616bd5583fe33dc383e369eaaa4098de3564736f6c634300080d0033",
  "immutableReferences": {},
  "source": "//SPDX-License-Identifier: MIT\n\npragma solidity >=0.7.0 <0.9.0;\n\nimport \"@openzeppelin/contracts/access/Ownable.sol\";\nimport \"@openzeppelin/contracts/utils/math/SafeMath.sol\";\n\ncontract FamilyWallet is Ownable{\n\n    using SafeMath for uint;\n\n    uint256 transactionCount;\n\n    struct TransferStruct {\n        address sender;\n        address receiver;\n        uint amount;\n        string message;\n        uint256 timestamp;\n        string keyword;\n    }\n\n    TransferStruct[] transactions;\n\n    mapping(address => uint) public allowance;\n\n    modifier ownerOrAllowed(uint _amount) {\n        require(isOwner() || allowance[msg.sender] >= _amount, \"You are not allowed!\");\n        _;\n    }\n\n    event AllowanceChanged(address indexed _forWho, address indexed _byWhom, uint _oldAmount, uint _newAmount);\n    event MoneySent (address indexed _beneficiary, uint _amount);\n    event MoneyReceived (address indexed _from, uint _amount);\n    event Transfer(address from, address receiver, uint amount, string message, uint256 timestamp, string keyword);\n\n    receive() external payable {\n        emit MoneyReceived(msg.sender, msg.value);\n    }\n\n    function addAllowance(address _who, uint _amount) public onlyOwner {\n        emit AllowanceChanged(_who, msg.sender, allowance[_who], _amount);\n        allowance[_who] = _amount;\n    }\n\n    function addToBlockchain(address payable receiver, uint amount, string memory message, string memory keyword) public {\n        transactionCount += 1;\n        transactions.push(TransferStruct(msg.sender, receiver, amount, message, block.timestamp, keyword));\n\n        emit Transfer(msg.sender, receiver, amount, message, block.timestamp, keyword);\n    }\n\n    function getAllTransactions() public view returns (TransferStruct[] memory) {\n        return transactions;\n    }\n\n    function getTransactionCount() public view returns (uint256) {\n        return transactionCount;\n    }    \n\n    function withdrawMoney(address payable _to, uint _amount) public ownerOrAllowed(_amount) {\n        require(_amount <= address(this).balance, \"Insufficient funds!\");\n        if(!isOwner()) {\n            reduceAllowance(msg.sender, _amount);\n        }\n        emit MoneySent(_to, _amount);\n        _to.transfer(_amount);\n    }\n\n    function renounceOwnership() public view override onlyOwner {\n        revert(\"Cannot renounce ownership!\");\n    }\n\n    function reduceAllowance(address _who, uint _amount) internal ownerOrAllowed(_amount) {\n        emit AllowanceChanged(_who, msg.sender, allowance[_who], allowance[_who].sub(_amount));\n        allowance[_who] =  allowance[_who].sub(_amount);\n    }\n\n    function isOwner() internal view returns(bool) {\n        return owner() == msg.sender;\n    }\n}",
  "sourcePath": "/Users/erdal/Desktop/code/wallet/contracts/FamilyWallet.sol",
  "compiler": {
    "name": "solc",
    "version": "0.8.13+commit.abaa5c0e.Emscripten.clang"
  },
  "schemaVersion": "3.4.6",
  "updatedAt": "2022-04-01T09:24:04.725Z",
  "networkType": "ethereum",
  "devdoc": {
    "kind": "dev",
    "methods": {
      "owner()": {
        "details": "Returns the address of the current owner."
      },
      "renounceOwnership()": {
        "details": "Leaves the contract without owner. It will not be possible to call `onlyOwner` functions anymore. Can only be called by the current owner. NOTE: Renouncing ownership will leave the contract without an owner, thereby removing any functionality that is only available to the owner."
      },
      "transferOwnership(address)": {
        "details": "Transfers ownership of the contract to a new account (`newOwner`). Can only be called by the current owner."
      }
    },
    "version": 1
  },
  "userdoc": {
    "kind": "user",
    "methods": {},
    "version": 1
  }
}