{
  "contractName": "FamilyWallet",
  "abi": [
    {
      "anonymous": false,
      "inputs": [
        {
          "indexed": true,
          "internalType": "address",
          "name": "_forWho",
          "type": "address"
        },
        {
          "indexed": true,
          "internalType": "address",
          "name": "_byWhom",
          "type": "address"
        },
        {
          "indexed": false,
          "internalType": "uint256",
          "name": "_oldAmount",
          "type": "uint256"
        },
        {
          "indexed": false,
          "internalType": "uint256",
          "name": "_newAmount",
          "type": "uint256"
        }
      ],
      "name": "AllowanceChanged",
      "type": "event"
    },
    {
      "anonymous": false,
      "inputs": [
        {
          "indexed": true,
          "internalType": "address",
          "name": "_from",
          "type": "address"
        },
        {
          "indexed": false,
          "internalType": "uint256",
          "name": "_amount",
          "type": "uint256"
        }
      ],
      "name": "MoneyReceived",
      "type": "event"
    },
    {
      "anonymous": false,
      "inputs": [
        {
          "indexed": true,
          "internalType": "address",
          "name": "_beneficiary",
          "type": "address"
        },
        {
          "indexed": false,
          "internalType": "uint256",
          "name": "_amount",
          "type": "uint256"
        }
      ],
      "name": "MoneySent",
      "type": "event"
    },
    {
      "anonymous": false,
      "inputs": [
        {
          "indexed": true,
          "internalType": "address",
          "name": "previousOwner",
          "type": "address"
        },
        {
          "indexed": true,
          "internalType": "address",
          "name": "newOwner",
          "type": "address"
        }
      ],
      "name": "OwnershipTransferred",
      "type": "event"
    },
    {
      "anonymous": false,
      "inputs": [
        {
          "indexed": false,
          "internalType": "address",
          "name": "from",
          "type": "address"
        },
        {
          "indexed": false,
          "internalType": "address",
          "name": "to",
          "type": "address"
        },
        {
          "indexed": false,
          "internalType": "uint256",
          "name": "amount",
          "type": "uint256"
        },
        {
          "indexed": false,
          "internalType": "string",
          "name": "message",
          "type": "string"
        },
        {
          "indexed": false,
          "internalType": "uint256",
          "name": "timestamp",
          "type": "uint256"
        },
        {
          "indexed": false,
          "internalType": "string",
          "name": "keyword",
          "type": "string"
        }
      ],
      "name": "Transfer",
      "type": "event"
    },
    {
      "inputs": [
        {
          "internalType": "address",
          "name": "",
          "type": "address"
        }
      ],
      "name": "allowance",
      "outputs": [
        {
          "internalType": "uint256",
          "name": "",
          "type": "uint256"
        }
      ],
      "stateMutability": "view",
      "type": "function",
      "constant": true
    },
    {
      "inputs": [],
      "name": "numOfBeneficiaries",
      "outputs": [
        {
          "internalType": "uint256",
          "name": "",
          "type": "uint256"
        }
      ],
      "stateMutability": "view",
      "type": "function",
      "constant": true
    },
    {
      "inputs": [],
      "name": "owner",
      "outputs": [
        {
          "internalType": "address",
          "name": "",
          "type": "address"
        }
      ],
      "stateMutability": "view",
      "type": "function",
      "constant": true
    },
    {
      "inputs": [
        {
          "internalType": "address",
          "name": "newOwner",
          "type": "address"
        }
      ],
      "name": "transferOwnership",
      "outputs": [],
      "stateMutability": "nonpayable",
      "type": "function"
    },
    {
      "stateMutability": "payable",
      "type": "receive",
      "payable": true
    },
    {
      "inputs": [
        {
          "internalType": "address",
          "name": "_who",
          "type": "address"
        },
        {
          "internalType": "uint256",
          "name": "_amount",
          "type": "uint256"
        }
      ],
      "name": "addAllowance",
      "outputs": [],
      "stateMutability": "nonpayable",
      "type": "function"
    },
    {
      "inputs": [
        {
          "internalType": "address",
          "name": "_who",
          "type": "address"
        },
        {
          "internalType": "uint256",
          "name": "_amount",
          "type": "uint256"
        }
      ],
      "name": "reduceAllowance",
      "outputs": [],
      "stateMutability": "nonpayable",
      "type": "function"
    },
    {
      "inputs": [
        {
          "internalType": "address",
          "name": "_who",
          "type": "address"
        }
      ],
      "name": "getAllowance",
      "outputs": [
        {
          "internalType": "uint256",
          "name": "",
          "type": "uint256"
        }
      ],
      "stateMutability": "view",
      "type": "function",
      "constant": true
    },
    {
      "inputs": [
        {
          "internalType": "address payable",
          "name": "to",
          "type": "address"
        },
        {
          "internalType": "uint256",
          "name": "amount",
          "type": "uint256"
        },
        {
          "internalType": "string",
          "name": "message",
          "type": "string"
        },
        {
          "internalType": "string",
          "name": "keyword",
          "type": "string"
        }
      ],
      "name": "addToBlockchain",
      "outputs": [],
      "stateMutability": "nonpayable",
      "type": "function"
    },
    {
      "inputs": [],
      "name": "getAllTransactions",
      "outputs": [
        {
          "components": [
            {
              "internalType": "address",
              "name": "sender",
              "type": "address"
            },
            {
              "internalType": "address",
              "name": "receiver",
              "type": "address"
            },
            {
              "internalType": "uint256",
              "name": "amount",
              "type": "uint256"
            },
            {
              "internalType": "string",
              "name": "message",
              "type": "string"
            },
            {
              "internalType": "uint256",
              "name": "timestamp",
              "type": "uint256"
            },
            {
              "internalType": "string",
              "name": "keyword",
              "type": "string"
            }
          ],
          "internalType": "struct FamilyWallet.TransferStruct[]",
          "name": "",
          "type": "tuple[]"
        }
      ],
      "stateMutability": "view",
      "type": "function",
      "constant": true
    },
    {
      "inputs": [],
      "name": "getTransactionCount",
      "outputs": [
        {
          "internalType": "uint256",
          "name": "",
          "type": "uint256"
        }
      ],
      "stateMutability": "view",
      "type": "function",
      "constant": true
    },
    {
      "inputs": [],
      "name": "getTransactionsLength",
      "outputs": [
        {
          "internalType": "uint256",
          "name": "",
          "type": "uint256"
        }
      ],
      "stateMutability": "view",
      "type": "function",
      "constant": true
    },
    {
      "inputs": [
        {
          "internalType": "address payable",
          "name": "_to",
          "type": "address"
        },
        {
          "internalType": "uint256",
          "name": "_amount",
          "type": "uint256"
        }
      ],
      "name": "withdrawMoney",
      "outputs": [],
      "stateMutability": "nonpayable",
      "type": "function"
    },
    {
      "inputs": [],
      "name": "renounceOwnership",
      "outputs": [],
      "stateMutability": "view",
      "type": "function",
      "constant": true
    }
  ],
  "bytecode": "0x608060405234801561001057600080fd5b5061002d61002261003260201b60201c565b61003a60201b60201c565b6100fe565b600033905090565b60008060009054906101000a900473ffffffffffffffffffffffffffffffffffffffff169050816000806101000a81548173ffffffffffffffffffffffffffffffffffffffff021916908373ffffffffffffffffffffffffffffffffffffffff1602179055508173ffffffffffffffffffffffffffffffffffffffff168173ffffffffffffffffffffffffffffffffffffffff167f8be0079c531659141344cd1fd0a4f28419497f9722a3daafe3b4186f6b6457e060405160405180910390a35050565b611b178061010d6000396000f3fe6080604052600436106100c65760003560e01c8063cc2d7ead1161007f578063f219362711610059578063f2193627146102af578063f274c897146102da578063f2fde38b14610303578063f3c40c4b1461032c5761011b565b8063cc2d7ead1461021e578063d61f31c514610247578063eb5a662e146102725761011b565b806327506f53146101205780632e7700f01461014b5780633e5beab914610176578063715018a6146101b35780638da5cb5b146101ca5780638fdf08df146101f55761011b565b3661011b573373ffffffffffffffffffffffffffffffffffffffff167f27b15ed4cf832749ed39f33a64e4707ed60a761485e41ffec7343ecaddc0c02a346040516101119190611078565b60405180910390a2005b600080fd5b34801561012c57600080fd5b50610135610355565b60405161014291906112ce565b60405180910390f35b34801561015757600080fd5b50610160610598565b60405161016d9190611078565b60405180910390f35b34801561018257600080fd5b5061019d60048036038101906101989190611330565b6105a2565b6040516101aa9190611078565b60405180910390f35b3480156101bf57600080fd5b506101c86105ba565b005b3480156101d657600080fd5b506101df610671565b6040516101ec919061136c565b60405180910390f35b34801561020157600080fd5b5061021c600480360381019061021791906113b3565b61069a565b005b34801561022a57600080fd5b5061024560048036038101906102409190611566565b6108a6565b005b34801561025357600080fd5b5061025c610a69565b6040516102699190611078565b60405180910390f35b34801561027e57600080fd5b5061029960048036038101906102949190611330565b610a6f565b6040516102a69190611078565b60405180910390f35b3480156102bb57600080fd5b506102c4610ab8565b6040516102d19190611078565b60405180910390f35b3480156102e657600080fd5b5061030160048036038101906102fc9190611605565b610ac5565b005b34801561030f57600080fd5b5061032a60048036038101906103259190611330565b610c3c565b005b34801561033857600080fd5b50610353600480360381019061034e91906113b3565b610d33565b005b60606003805480602002602001604051908101604052809291908181526020016000905b8282101561058f57838290600052602060002090600602016040518060c00160405290816000820160009054906101000a900473ffffffffffffffffffffffffffffffffffffffff1673ffffffffffffffffffffffffffffffffffffffff1673ffffffffffffffffffffffffffffffffffffffff1681526020016001820160009054906101000a900473ffffffffffffffffffffffffffffffffffffffff1673ffffffffffffffffffffffffffffffffffffffff1673ffffffffffffffffffffffffffffffffffffffff1681526020016002820154815260200160038201805461046290611674565b80601f016020809104026020016040519081016040528092919081815260200182805461048e90611674565b80156104db5780601f106104b0576101008083540402835291602001916104db565b820191906000526020600020905b8154815290600101906020018083116104be57829003601f168201915b50505050508152602001600482015481526020016005820180546104fe90611674565b80601f016020809104026020016040519081016040528092919081815260200182805461052a90611674565b80156105775780601f1061054c57610100808354040283529160200191610577565b820191906000526020600020905b81548152906001019060200180831161055a57829003601f168201915b50505050508152505081526020019060010190610379565b50505050905090565b6000600254905090565b60046020528060005260406000206000915090505481565b6105c2610e9d565b73ffffffffffffffffffffffffffffffffffffffff166105e0610671565b73ffffffffffffffffffffffffffffffffffffffff1614610636576040517f08c379a000000000000000000000000000000000000000000000000000000000815260040161062d90611702565b60405180910390fd5b6040517f08c379a00000000000000000000000000000000000000000000000000000000081526004016106689061176e565b60405180910390fd5b60008060009054906101000a900473ffffffffffffffffffffffffffffffffffffffff16905090565b6106a2610e9d565b73ffffffffffffffffffffffffffffffffffffffff166106c0610671565b73ffffffffffffffffffffffffffffffffffffffff1614610716576040517f08c379a000000000000000000000000000000000000000000000000000000000815260040161070d90611702565b60405180910390fd5b3373ffffffffffffffffffffffffffffffffffffffff168273ffffffffffffffffffffffffffffffffffffffff167f3691d1a86d99355e52b689ca70a7bdf6d80763237a6aa06e5fa43964eac7244b600460008673ffffffffffffffffffffffffffffffffffffffff1673ffffffffffffffffffffffffffffffffffffffff168152602001908152602001600020546107f785600460008973ffffffffffffffffffffffffffffffffffffffff1673ffffffffffffffffffffffffffffffffffffffff16815260200190815260200160002054610ea590919063ffffffff16565b60405161080592919061178e565b60405180910390a361085f81600460008573ffffffffffffffffffffffffffffffffffffffff1673ffffffffffffffffffffffffffffffffffffffff16815260200190815260200160002054610ea590919063ffffffff16565b600460008473ffffffffffffffffffffffffffffffffffffffff1673ffffffffffffffffffffffffffffffffffffffff168152602001908152602001600020819055505050565b6001600260008282546108b991906117e6565b925050819055507f416cfa4330a4565f45c2fd2dd4826a83a37443aba2ce6f79477c7355afac35fa3385858542866040516108f9969594939291906118d4565b60405180910390a160036040518060c001604052803373ffffffffffffffffffffffffffffffffffffffff1681526020018673ffffffffffffffffffffffffffffffffffffffff16815260200185815260200184815260200142815260200183815250908060018154018082558091505060019003906000526020600020906006020160009091909190915060008201518160000160006101000a81548173ffffffffffffffffffffffffffffffffffffffff021916908373ffffffffffffffffffffffffffffffffffffffff16021790555060208201518160010160006101000a81548173ffffffffffffffffffffffffffffffffffffffff021916908373ffffffffffffffffffffffffffffffffffffffff160217905550604082015181600201556060820151816003019080519060200190610a39929190610fbc565b506080820151816004015560a0820151816005019080519060200190610a60929190610fbc565b50505050505050565b60015481565b6000600460008373ffffffffffffffffffffffffffffffffffffffff1673ffffffffffffffffffffffffffffffffffffffff168152602001908152602001600020549050919050565b6000600380549050905090565b8080600460003373ffffffffffffffffffffffffffffffffffffffff1673ffffffffffffffffffffffffffffffffffffffff168152602001908152602001600020541015610b48576040517f08c379a0000000000000000000000000000000000000000000000000000000008152600401610b3f9061198f565b60405180910390fd5b47821115610b8b576040517f08c379a0000000000000000000000000000000000000000000000000000000008152600401610b82906119fb565b60405180910390fd5b610b93610ebb565b610ba257610ba1338361069a565b5b8273ffffffffffffffffffffffffffffffffffffffff167f7f51d406915971d4ac1c91af96be5187ea6ab64753785aad519a533def80a41e83604051610be89190611078565b60405180910390a28273ffffffffffffffffffffffffffffffffffffffff166108fc839081150290604051600060405180830381858888f19350505050158015610c36573d6000803e3d6000fd5b50505050565b610c44610e9d565b73ffffffffffffffffffffffffffffffffffffffff16610c62610671565b73ffffffffffffffffffffffffffffffffffffffff1614610cb8576040517f08c379a0000000000000000000000000000000000000000000000000000000008152600401610caf90611702565b60405180910390fd5b600073ffffffffffffffffffffffffffffffffffffffff168173ffffffffffffffffffffffffffffffffffffffff1603610d27576040517f08c379a0000000000000000000000000000000000000000000000000000000008152600401610d1e90611a8d565b60405180910390fd5b610d3081610ef8565b50565b610d3b610e9d565b73ffffffffffffffffffffffffffffffffffffffff16610d59610671565b73ffffffffffffffffffffffffffffffffffffffff1614610daf576040517f08c379a0000000000000000000000000000000000000000000000000000000008152600401610da690611702565b60405180910390fd5b80600460008473ffffffffffffffffffffffffffffffffffffffff1673ffffffffffffffffffffffffffffffffffffffff168152602001908152602001600020819055503373ffffffffffffffffffffffffffffffffffffffff168273ffffffffffffffffffffffffffffffffffffffff167f3691d1a86d99355e52b689ca70a7bdf6d80763237a6aa06e5fa43964eac7244b600460008673ffffffffffffffffffffffffffffffffffffffff1673ffffffffffffffffffffffffffffffffffffffff1681526020019081526020016000205484604051610e9192919061178e565b60405180910390a35050565b600033905090565b60008183610eb39190611aad565b905092915050565b60003373ffffffffffffffffffffffffffffffffffffffff16610edc610671565b73ffffffffffffffffffffffffffffffffffffffff1614905090565b60008060009054906101000a900473ffffffffffffffffffffffffffffffffffffffff169050816000806101000a81548173ffffffffffffffffffffffffffffffffffffffff021916908373ffffffffffffffffffffffffffffffffffffffff1602179055508173ffffffffffffffffffffffffffffffffffffffff168173ffffffffffffffffffffffffffffffffffffffff167f8be0079c531659141344cd1fd0a4f28419497f9722a3daafe3b4186f6b6457e060405160405180910390a35050565b828054610fc890611674565b90600052602060002090601f016020900481019282610fea5760008555611031565b82601f1061100357805160ff1916838001178555611031565b82800160010185558215611031579182015b82811115611030578251825591602001919060010190611015565b5b50905061103e9190611042565b5090565b5b8082111561105b576000816000905550600101611043565b5090565b6000819050919050565b6110728161105f565b82525050565b600060208201905061108d6000830184611069565b92915050565b600081519050919050565b600082825260208201905092915050565b6000819050602082019050919050565b600073ffffffffffffffffffffffffffffffffffffffff82169050919050565b60006110ea826110bf565b9050919050565b6110fa816110df565b82525050565b6111098161105f565b82525050565b600081519050919050565b600082825260208201905092915050565b60005b8381101561114957808201518184015260208101905061112e565b83811115611158576000848401525b50505050565b6000601f19601f8301169050919050565b600061117a8261110f565b611184818561111a565b935061119481856020860161112b565b61119d8161115e565b840191505092915050565b600060c0830160008301516111c060008601826110f1565b5060208301516111d360208601826110f1565b5060408301516111e66040860182611100565b50606083015184820360608601526111fe828261116f565b91505060808301516112136080860182611100565b5060a083015184820360a086015261122b828261116f565b9150508091505092915050565b600061124483836111a8565b905092915050565b6000602082019050919050565b600061126482611093565b61126e818561109e565b935083602082028501611280856110af565b8060005b858110156112bc578484038952815161129d8582611238565b94506112a88361124c565b925060208a01995050600181019050611284565b50829750879550505050505092915050565b600060208201905081810360008301526112e88184611259565b905092915050565b6000604051905090565b600080fd5b600080fd5b61130d816110df565b811461131857600080fd5b50565b60008135905061132a81611304565b92915050565b600060208284031215611346576113456112fa565b5b60006113548482850161131b565b91505092915050565b611366816110df565b82525050565b6000602082019050611381600083018461135d565b92915050565b6113908161105f565b811461139b57600080fd5b50565b6000813590506113ad81611387565b92915050565b600080604083850312156113ca576113c96112fa565b5b60006113d88582860161131b565b92505060206113e98582860161139e565b9150509250929050565b60006113fe826110bf565b9050919050565b61140e816113f3565b811461141957600080fd5b50565b60008135905061142b81611405565b92915050565b600080fd5b600080fd5b7f4e487b7100000000000000000000000000000000000000000000000000000000600052604160045260246000fd5b6114738261115e565b810181811067ffffffffffffffff821117156114925761149161143b565b5b80604052505050565b60006114a56112f0565b90506114b1828261146a565b919050565b600067ffffffffffffffff8211156114d1576114d061143b565b5b6114da8261115e565b9050602081019050919050565b82818337600083830152505050565b6000611509611504846114b6565b61149b565b90508281526020810184848401111561152557611524611436565b5b6115308482856114e7565b509392505050565b600082601f83011261154d5761154c611431565b5b813561155d8482602086016114f6565b91505092915050565b600080600080608085870312156115805761157f6112fa565b5b600061158e8782880161141c565b945050602061159f8782880161139e565b935050604085013567ffffffffffffffff8111156115c0576115bf6112ff565b5b6115cc87828801611538565b925050606085013567ffffffffffffffff8111156115ed576115ec6112ff565b5b6115f987828801611538565b91505092959194509250565b6000806040838503121561161c5761161b6112fa565b5b600061162a8582860161141c565b925050602061163b8582860161139e565b9150509250929050565b7f4e487b7100000000000000000000000000000000000000000000000000000000600052602260045260246000fd5b6000600282049050600182168061168c57607f821691505b60208210810361169f5761169e611645565b5b50919050565b600082825260208201905092915050565b7f4f776e61626c653a2063616c6c6572206973206e6f7420746865206f776e6572600082015250565b60006116ec6020836116a5565b91506116f7826116b6565b602082019050919050565b6000602082019050818103600083015261171b816116df565b9050919050565b7f43616e6e6f742072656e6f756e6365206f776e65727368697021000000000000600082015250565b6000611758601a836116a5565b915061176382611722565b602082019050919050565b600060208201905081810360008301526117878161174b565b9050919050565b60006040820190506117a36000830185611069565b6117b06020830184611069565b9392505050565b7f4e487b7100000000000000000000000000000000000000000000000000000000600052601160045260246000fd5b60006117f18261105f565b91506117fc8361105f565b9250827fffffffffffffffffffffffffffffffffffffffffffffffffffffffffffffffff03821115611831576118306117b7565b5b828201905092915050565b6000819050919050565b600061186161185c611857846110bf565b61183c565b6110bf565b9050919050565b600061187382611846565b9050919050565b600061188582611868565b9050919050565b6118958161187a565b82525050565b60006118a68261110f565b6118b081856116a5565b93506118c081856020860161112b565b6118c98161115e565b840191505092915050565b600060c0820190506118e9600083018961135d565b6118f6602083018861188c565b6119036040830187611069565b8181036060830152611915818661189b565b90506119246080830185611069565b81810360a0830152611936818461189b565b9050979650505050505050565b7f596f7520617265206e6f7420616c6c6f77656421000000000000000000000000600082015250565b60006119796014836116a5565b915061198482611943565b602082019050919050565b600060208201905081810360008301526119a88161196c565b9050919050565b7f496e73756666696369656e742066756e64732100000000000000000000000000600082015250565b60006119e56013836116a5565b91506119f0826119af565b602082019050919050565b60006020820190508181036000830152611a14816119d8565b9050919050565b7f4f776e61626c653a206e6577206f776e657220697320746865207a65726f206160008201527f6464726573730000000000000000000000000000000000000000000000000000602082015250565b6000611a776026836116a5565b9150611a8282611a1b565b604082019050919050565b60006020820190508181036000830152611aa681611a6a565b9050919050565b6000611ab88261105f565b9150611ac38361105f565b925082821015611ad657611ad56117b7565b5b82820390509291505056fea2646970667358221220a11f2593b294a246b8994bdf736a6336098df0764afbecc729dfda80b05774d464736f6c634300080d0033",
  "immutableReferences": {},
  "source": "//SPDX-License-Identifier: MIT\n\npragma solidity >= 0.7.0 < 0.9.0;\n\nimport \"@openzeppelin/contracts/access/Ownable.sol\";\nimport \"@openzeppelin/contracts/utils/math/SafeMath.sol\";\n\ncontract FamilyWallet is Ownable{\n\n    using SafeMath for uint;\n\n    uint public numOfBeneficiaries;\n    uint256 transactionCount;\n\n    struct TransferStruct {\n        address sender;\n        address receiver;\n        uint amount;\n        string message;\n        uint256 timestamp;\n        string keyword;\n    }\n\n    TransferStruct[] transactions;\n\n    mapping(address => uint) public allowance;\n\n\n    modifier ownerOrAllowed(uint _amount) {\n        require(allowance[msg.sender] >= _amount, \"You are not allowed!\");\n        _;\n    }\n\n    event AllowanceChanged(address indexed _forWho, address indexed _byWhom, uint _oldAmount, uint _newAmount);\n    event MoneySent (address indexed _beneficiary, uint _amount);\n    event MoneyReceived (address indexed _from, uint _amount);\n    event Transfer(address from, address to, uint amount, string message, uint256 timestamp, string keyword);\n\n    receive() external payable {\n        emit MoneyReceived(msg.sender, msg.value);\n    }\n\n    function addAllowance(address _who, uint _amount) public onlyOwner {\n        allowance[_who] = _amount;\n        emit AllowanceChanged(_who, msg.sender, allowance[_who], _amount);\n    }\n\n    function reduceAllowance(address _who, uint _amount) public onlyOwner {\n        emit AllowanceChanged(_who, msg.sender, allowance[_who], allowance[_who].sub(_amount));\n        allowance[_who] =  allowance[_who].sub(_amount);\n    }\n\n    function getAllowance(address _who) public view returns (uint) {\n        return allowance[_who];\n    }   \n\n    function addToBlockchain(address payable to, uint amount, string memory message, string memory keyword) public {\n        transactionCount += 1;\n        emit Transfer(msg.sender, to, amount, message, block.timestamp, keyword);\n        transactions.push(TransferStruct(msg.sender, to, amount, message, block.timestamp, keyword));\n    }\n\n    function getAllTransactions() public view returns (TransferStruct[] memory) {\n        return transactions;\n    }\n    \n    function getTransactionCount() public view returns (uint256) {\n        return transactionCount;\n    }\n\n    function getTransactionsLength() public view returns(uint256) {\n        return transactions.length;\n    }\n\n    function withdrawMoney(address payable _to, uint _amount) public ownerOrAllowed(_amount) {\n        require(_amount <= address(this).balance, \"Insufficient funds!\");\n        if(!isOwner()) {\n            reduceAllowance(msg.sender, _amount);\n        }\n        emit MoneySent(_to, _amount);\n        _to.transfer(_amount);\n    }\n\n    function renounceOwnership() public view override onlyOwner {\n        revert(\"Cannot renounce ownership!\");\n    }\n\n    function isOwner() internal view returns(bool) {\n        return owner() == msg.sender;\n    }\n}",
  "sourcePath": "/Users/erdal/Desktop/code/wallet/contracts/FamilyWallet.sol",
  "compiler": {
    "name": "solc",
    "version": "0.8.13+commit.abaa5c0e.Emscripten.clang"
  },
  "schemaVersion": "3.4.7",
  "updatedAt": "2022-05-13T16:06:31.236Z",
  "networkType": "ethereum",
  "devdoc": {
    "kind": "dev",
    "methods": {
      "owner()": {
        "details": "Returns the address of the current owner."
      },
      "renounceOwnership()": {
        "details": "Leaves the contract without owner. It will not be possible to call `onlyOwner` functions anymore. Can only be called by the current owner. NOTE: Renouncing ownership will leave the contract without an owner, thereby removing any functionality that is only available to the owner."
      },
      "transferOwnership(address)": {
        "details": "Transfers ownership of the contract to a new account (`newOwner`). Can only be called by the current owner."
      }
    },
    "version": 1
  },
  "userdoc": {
    "kind": "user",
    "methods": {},
    "version": 1
  }
}