{
  "contractName": "FamilyWallet",
  "abi": [
    {
      "anonymous": false,
      "inputs": [
        {
          "indexed": true,
          "internalType": "address",
          "name": "_forWho",
          "type": "address"
        },
        {
          "indexed": true,
          "internalType": "address",
          "name": "_byWhom",
          "type": "address"
        },
        {
          "indexed": false,
          "internalType": "uint256",
          "name": "_oldAmount",
          "type": "uint256"
        },
        {
          "indexed": false,
          "internalType": "uint256",
          "name": "_newAmount",
          "type": "uint256"
        }
      ],
      "name": "AllowanceChanged",
      "type": "event"
    },
    {
      "anonymous": false,
      "inputs": [
        {
          "indexed": true,
          "internalType": "address",
          "name": "_from",
          "type": "address"
        },
        {
          "indexed": false,
          "internalType": "uint256",
          "name": "_amount",
          "type": "uint256"
        }
      ],
      "name": "MoneyReceived",
      "type": "event"
    },
    {
      "anonymous": false,
      "inputs": [
        {
          "indexed": true,
          "internalType": "address",
          "name": "_beneficiary",
          "type": "address"
        },
        {
          "indexed": false,
          "internalType": "uint256",
          "name": "_amount",
          "type": "uint256"
        }
      ],
      "name": "MoneySent",
      "type": "event"
    },
    {
      "anonymous": false,
      "inputs": [
        {
          "indexed": true,
          "internalType": "address",
          "name": "previousOwner",
          "type": "address"
        },
        {
          "indexed": true,
          "internalType": "address",
          "name": "newOwner",
          "type": "address"
        }
      ],
      "name": "OwnershipTransferred",
      "type": "event"
    },
    {
      "anonymous": false,
      "inputs": [
        {
          "indexed": false,
          "internalType": "address",
          "name": "from",
          "type": "address"
        },
        {
          "indexed": false,
          "internalType": "address",
          "name": "to",
          "type": "address"
        },
        {
          "indexed": false,
          "internalType": "uint256",
          "name": "amount",
          "type": "uint256"
        },
        {
          "indexed": false,
          "internalType": "string",
          "name": "message",
          "type": "string"
        },
        {
          "indexed": false,
          "internalType": "uint256",
          "name": "timestamp",
          "type": "uint256"
        },
        {
          "indexed": false,
          "internalType": "string",
          "name": "keyword",
          "type": "string"
        }
      ],
      "name": "Transfer",
      "type": "event"
    },
    {
      "inputs": [
        {
          "internalType": "address",
          "name": "",
          "type": "address"
        }
      ],
      "name": "allowance",
      "outputs": [
        {
          "internalType": "uint256",
          "name": "",
          "type": "uint256"
        }
      ],
      "stateMutability": "view",
      "type": "function",
      "constant": true
    },
    {
      "inputs": [],
      "name": "isStopped",
      "outputs": [
        {
          "internalType": "bool",
          "name": "",
          "type": "bool"
        }
      ],
      "stateMutability": "view",
      "type": "function",
      "constant": true
    },
    {
      "inputs": [],
      "name": "owner",
      "outputs": [
        {
          "internalType": "address",
          "name": "",
          "type": "address"
        }
      ],
      "stateMutability": "view",
      "type": "function",
      "constant": true
    },
    {
      "inputs": [
        {
          "internalType": "address",
          "name": "newOwner",
          "type": "address"
        }
      ],
      "name": "transferOwnership",
      "outputs": [],
      "stateMutability": "nonpayable",
      "type": "function"
    },
    {
      "stateMutability": "payable",
      "type": "receive",
      "payable": true
    },
    {
      "inputs": [],
      "name": "emergencyWithdraw",
      "outputs": [],
      "stateMutability": "nonpayable",
      "type": "function"
    },
    {
      "inputs": [],
      "name": "destroy",
      "outputs": [],
      "stateMutability": "nonpayable",
      "type": "function"
    },
    {
      "inputs": [],
      "name": "stopContract",
      "outputs": [],
      "stateMutability": "nonpayable",
      "type": "function"
    },
    {
      "inputs": [],
      "name": "resumeContract",
      "outputs": [],
      "stateMutability": "nonpayable",
      "type": "function"
    },
    {
      "inputs": [
        {
          "internalType": "address",
          "name": "_who",
          "type": "address"
        },
        {
          "internalType": "uint256",
          "name": "_amount",
          "type": "uint256"
        }
      ],
      "name": "addAllowance",
      "outputs": [],
      "stateMutability": "nonpayable",
      "type": "function"
    },
    {
      "inputs": [
        {
          "internalType": "address",
          "name": "_who",
          "type": "address"
        },
        {
          "internalType": "uint256",
          "name": "_amount",
          "type": "uint256"
        }
      ],
      "name": "reduceAllowance",
      "outputs": [],
      "stateMutability": "nonpayable",
      "type": "function"
    },
    {
      "inputs": [],
      "name": "getAllowance",
      "outputs": [
        {
          "internalType": "uint256",
          "name": "",
          "type": "uint256"
        }
      ],
      "stateMutability": "view",
      "type": "function",
      "constant": true
    },
    {
      "inputs": [
        {
          "internalType": "address payable",
          "name": "to",
          "type": "address"
        },
        {
          "internalType": "uint256",
          "name": "amount",
          "type": "uint256"
        },
        {
          "internalType": "string",
          "name": "message",
          "type": "string"
        },
        {
          "internalType": "string",
          "name": "keyword",
          "type": "string"
        }
      ],
      "name": "addToBlockchain",
      "outputs": [],
      "stateMutability": "nonpayable",
      "type": "function"
    },
    {
      "inputs": [],
      "name": "getAllTransactions",
      "outputs": [
        {
          "components": [
            {
              "internalType": "address",
              "name": "sender",
              "type": "address"
            },
            {
              "internalType": "address",
              "name": "receiver",
              "type": "address"
            },
            {
              "internalType": "uint256",
              "name": "amount",
              "type": "uint256"
            },
            {
              "internalType": "string",
              "name": "message",
              "type": "string"
            },
            {
              "internalType": "uint256",
              "name": "timestamp",
              "type": "uint256"
            },
            {
              "internalType": "string",
              "name": "keyword",
              "type": "string"
            }
          ],
          "internalType": "struct FamilyWallet.TransferStruct[]",
          "name": "",
          "type": "tuple[]"
        }
      ],
      "stateMutability": "view",
      "type": "function",
      "constant": true
    },
    {
      "inputs": [],
      "name": "getTransactionCount",
      "outputs": [
        {
          "internalType": "uint256",
          "name": "",
          "type": "uint256"
        }
      ],
      "stateMutability": "view",
      "type": "function",
      "constant": true
    },
    {
      "inputs": [],
      "name": "getTransactionsLength",
      "outputs": [
        {
          "internalType": "uint256",
          "name": "",
          "type": "uint256"
        }
      ],
      "stateMutability": "view",
      "type": "function",
      "constant": true
    },
    {
      "inputs": [
        {
          "internalType": "address payable",
          "name": "_to",
          "type": "address"
        },
        {
          "internalType": "uint256",
          "name": "_amount",
          "type": "uint256"
        }
      ],
      "name": "withdrawMoney",
      "outputs": [],
      "stateMutability": "nonpayable",
      "type": "function"
    },
    {
      "inputs": [],
      "name": "renounceOwnership",
      "outputs": [],
      "stateMutability": "view",
      "type": "function",
      "constant": true
    }
  ],
  "bytecode": "0x60806040526000600260006101000a81548160ff02191690831515021790555034801561002b57600080fd5b5061004861003d61004d60201b60201c565b61005560201b60201c565b610119565b600033905090565b60008060009054906101000a900473ffffffffffffffffffffffffffffffffffffffff169050816000806101000a81548173ffffffffffffffffffffffffffffffffffffffff021916908373ffffffffffffffffffffffffffffffffffffffff1602179055508173ffffffffffffffffffffffffffffffffffffffff168173ffffffffffffffffffffffffffffffffffffffff167f8be0079c531659141344cd1fd0a4f28419497f9722a3daafe3b4186f6b6457e060405160405180910390a35050565b611ff7806101286000396000f3fe6080604052600436106101025760003560e01c80638fdf08df11610095578063db2e21bc11610064578063db2e21bc1461031e578063f219362714610335578063f274c89714610360578063f2fde38b14610389578063f3c40c4b146103b257610157565b80638fdf08df1461028a578063973e9b8b146102b3578063c4bc5da5146102de578063cc2d7ead146102f557610157565b80633f683b6a116100d15780633f683b6a14610206578063715018a61461023157806383197ef0146102485780638da5cb5b1461025f57610157565b806312253a6c1461015c57806327506f53146101735780632e7700f01461019e5780633e5beab9146101c957610157565b36610157573373ffffffffffffffffffffffffffffffffffffffff167f27b15ed4cf832749ed39f33a64e4707ed60a761485e41ffec7343ecaddc0c02a3460405161014d9190611470565b60405180910390a2005b600080fd5b34801561016857600080fd5b506101716103db565b005b34801561017f57600080fd5b50610188610474565b60405161019591906116c6565b60405180910390f35b3480156101aa57600080fd5b506101b36106b7565b6040516101c09190611470565b60405180910390f35b3480156101d557600080fd5b506101f060048036038101906101eb9190611728565b6106c1565b6040516101fd9190611470565b60405180910390f35b34801561021257600080fd5b5061021b6106d9565b6040516102289190611770565b60405180910390f35b34801561023d57600080fd5b506102466106ec565b005b34801561025457600080fd5b5061025d6107a3565b005b34801561026b57600080fd5b50610274610851565b604051610281919061179a565b60405180910390f35b34801561029657600080fd5b506102b160048036038101906102ac91906117e1565b61087a565b005b3480156102bf57600080fd5b506102c8610a9d565b6040516102d59190611470565b60405180910390f35b3480156102ea57600080fd5b506102f3610ae4565b005b34801561030157600080fd5b5061031c60048036038101906103179190611994565b610b7d565b005b34801561032a57600080fd5b50610333610d3f565b005b34801561034157600080fd5b5061034a610e8a565b6040516103579190611470565b60405180910390f35b34801561036c57600080fd5b5061038760048036038101906103829190611a33565b610e97565b005b34801561039557600080fd5b506103b060048036038101906103ab9190611728565b611034565b005b3480156103be57600080fd5b506103d960048036038101906103d491906117e1565b61112b565b005b6103e3611295565b73ffffffffffffffffffffffffffffffffffffffff16610401610851565b73ffffffffffffffffffffffffffffffffffffffff1614610457576040517f08c379a000000000000000000000000000000000000000000000000000000000815260040161044e90611ad0565b60405180910390fd5b6001600260006101000a81548160ff021916908315150217905550565b60606003805480602002602001604051908101604052809291908181526020016000905b828210156106ae57838290600052602060002090600602016040518060c00160405290816000820160009054906101000a900473ffffffffffffffffffffffffffffffffffffffff1673ffffffffffffffffffffffffffffffffffffffff1673ffffffffffffffffffffffffffffffffffffffff1681526020016001820160009054906101000a900473ffffffffffffffffffffffffffffffffffffffff1673ffffffffffffffffffffffffffffffffffffffff1673ffffffffffffffffffffffffffffffffffffffff1681526020016002820154815260200160038201805461058190611b1f565b80601f01602080910402602001604051908101604052809291908181526020018280546105ad90611b1f565b80156105fa5780601f106105cf576101008083540402835291602001916105fa565b820191906000526020600020905b8154815290600101906020018083116105dd57829003601f168201915b505050505081526020016004820154815260200160058201805461061d90611b1f565b80601f016020809104026020016040519081016040528092919081815260200182805461064990611b1f565b80156106965780601f1061066b57610100808354040283529160200191610696565b820191906000526020600020905b81548152906001019060200180831161067957829003601f168201915b50505050508152505081526020019060010190610498565b50505050905090565b6000600154905090565b60046020528060005260406000206000915090505481565b600260009054906101000a900460ff1681565b6106f4611295565b73ffffffffffffffffffffffffffffffffffffffff16610712610851565b73ffffffffffffffffffffffffffffffffffffffff1614610768576040517f08c379a000000000000000000000000000000000000000000000000000000000815260040161075f90611ad0565b60405180910390fd5b6040517f08c379a000000000000000000000000000000000000000000000000000000000815260040161079a90611b9c565b60405180910390fd5b600260009054906101000a900460ff166107bc57600080fd5b6107c4611295565b73ffffffffffffffffffffffffffffffffffffffff166107e2610851565b73ffffffffffffffffffffffffffffffffffffffff1614610838576040517f08c379a000000000000000000000000000000000000000000000000000000000815260040161082f90611ad0565b60405180910390fd5b3073ffffffffffffffffffffffffffffffffffffffff16ff5b60008060009054906101000a900473ffffffffffffffffffffffffffffffffffffffff16905090565b8061088361129d565b806108cd575080600460003373ffffffffffffffffffffffffffffffffffffffff1673ffffffffffffffffffffffffffffffffffffffff1681526020019081526020016000205410155b61090c576040517f08c379a000000000000000000000000000000000000000000000000000000000815260040161090390611c08565b60405180910390fd5b3373ffffffffffffffffffffffffffffffffffffffff168373ffffffffffffffffffffffffffffffffffffffff167f3691d1a86d99355e52b689ca70a7bdf6d80763237a6aa06e5fa43964eac7244b600460008773ffffffffffffffffffffffffffffffffffffffff1673ffffffffffffffffffffffffffffffffffffffff168152602001908152602001600020546109ed86600460008a73ffffffffffffffffffffffffffffffffffffffff1673ffffffffffffffffffffffffffffffffffffffff168152602001908152602001600020546112da90919063ffffffff16565b6040516109fb929190611c28565b60405180910390a3610a5582600460008673ffffffffffffffffffffffffffffffffffffffff1673ffffffffffffffffffffffffffffffffffffffff168152602001908152602001600020546112da90919063ffffffff16565b600460008573ffffffffffffffffffffffffffffffffffffffff1673ffffffffffffffffffffffffffffffffffffffff16815260200190815260200160002081905550505050565b6000600460003373ffffffffffffffffffffffffffffffffffffffff1673ffffffffffffffffffffffffffffffffffffffff16815260200190815260200160002054905090565b610aec611295565b73ffffffffffffffffffffffffffffffffffffffff16610b0a610851565b73ffffffffffffffffffffffffffffffffffffffff1614610b60576040517f08c379a0000000000000000000000000000000000000000000000000000000008152600401610b5790611ad0565b60405180910390fd5b6000600260006101000a81548160ff021916908315150217905550565b6001806000828254610b8f9190611c80565b925050819055507f416cfa4330a4565f45c2fd2dd4826a83a37443aba2ce6f79477c7355afac35fa338585854286604051610bcf96959493929190611d6e565b60405180910390a160036040518060c001604052803373ffffffffffffffffffffffffffffffffffffffff1681526020018673ffffffffffffffffffffffffffffffffffffffff16815260200185815260200184815260200142815260200183815250908060018154018082558091505060019003906000526020600020906006020160009091909190915060008201518160000160006101000a81548173ffffffffffffffffffffffffffffffffffffffff021916908373ffffffffffffffffffffffffffffffffffffffff16021790555060208201518160010160006101000a81548173ffffffffffffffffffffffffffffffffffffffff021916908373ffffffffffffffffffffffffffffffffffffffff160217905550604082015181600201556060820151816003019080519060200190610d0f9291906113b4565b506080820151816004015560a0820151816005019080519060200190610d369291906113b4565b50505050505050565b600260009054906101000a900460ff16610d5857600080fd5b610d60611295565b73ffffffffffffffffffffffffffffffffffffffff16610d7e610851565b73ffffffffffffffffffffffffffffffffffffffff1614610dd4576040517f08c379a0000000000000000000000000000000000000000000000000000000008152600401610dcb90611ad0565b60405180910390fd5b6000610dde610851565b73ffffffffffffffffffffffffffffffffffffffff1647604051610e0190611e0e565b60006040518083038185875af1925050503d8060008114610e3e576040519150601f19603f3d011682016040523d82523d6000602084013e610e43565b606091505b5050905080610e87576040517f08c379a0000000000000000000000000000000000000000000000000000000008152600401610e7e90611e6f565b60405180910390fd5b50565b6000600380549050905090565b80610ea061129d565b80610eea575080600460003373ffffffffffffffffffffffffffffffffffffffff1673ffffffffffffffffffffffffffffffffffffffff1681526020019081526020016000205410155b610f29576040517f08c379a0000000000000000000000000000000000000000000000000000000008152600401610f2090611c08565b60405180910390fd5b3073ffffffffffffffffffffffffffffffffffffffff1631821115610f83576040517f08c379a0000000000000000000000000000000000000000000000000000000008152600401610f7a90611edb565b60405180910390fd5b610f8b61129d565b610f9a57610f99338361087a565b5b8273ffffffffffffffffffffffffffffffffffffffff167f7f51d406915971d4ac1c91af96be5187ea6ab64753785aad519a533def80a41e83604051610fe09190611470565b60405180910390a28273ffffffffffffffffffffffffffffffffffffffff166108fc839081150290604051600060405180830381858888f1935050505015801561102e573d6000803e3d6000fd5b50505050565b61103c611295565b73ffffffffffffffffffffffffffffffffffffffff1661105a610851565b73ffffffffffffffffffffffffffffffffffffffff16146110b0576040517f08c379a00000000000000000000000000000000000000000000000000000000081526004016110a790611ad0565b60405180910390fd5b600073ffffffffffffffffffffffffffffffffffffffff168173ffffffffffffffffffffffffffffffffffffffff160361111f576040517f08c379a000000000000000000000000000000000000000000000000000000000815260040161111690611f6d565b60405180910390fd5b611128816112f0565b50565b611133611295565b73ffffffffffffffffffffffffffffffffffffffff16611151610851565b73ffffffffffffffffffffffffffffffffffffffff16146111a7576040517f08c379a000000000000000000000000000000000000000000000000000000000815260040161119e90611ad0565b60405180910390fd5b80600460008473ffffffffffffffffffffffffffffffffffffffff1673ffffffffffffffffffffffffffffffffffffffff168152602001908152602001600020819055503373ffffffffffffffffffffffffffffffffffffffff168273ffffffffffffffffffffffffffffffffffffffff167f3691d1a86d99355e52b689ca70a7bdf6d80763237a6aa06e5fa43964eac7244b600460008673ffffffffffffffffffffffffffffffffffffffff1673ffffffffffffffffffffffffffffffffffffffff1681526020019081526020016000205484604051611289929190611c28565b60405180910390a35050565b600033905090565b60003373ffffffffffffffffffffffffffffffffffffffff166112be610851565b73ffffffffffffffffffffffffffffffffffffffff1614905090565b600081836112e89190611f8d565b905092915050565b60008060009054906101000a900473ffffffffffffffffffffffffffffffffffffffff169050816000806101000a81548173ffffffffffffffffffffffffffffffffffffffff021916908373ffffffffffffffffffffffffffffffffffffffff1602179055508173ffffffffffffffffffffffffffffffffffffffff168173ffffffffffffffffffffffffffffffffffffffff167f8be0079c531659141344cd1fd0a4f28419497f9722a3daafe3b4186f6b6457e060405160405180910390a35050565b8280546113c090611b1f565b90600052602060002090601f0160209004810192826113e25760008555611429565b82601f106113fb57805160ff1916838001178555611429565b82800160010185558215611429579182015b8281111561142857825182559160200191906001019061140d565b5b509050611436919061143a565b5090565b5b8082111561145357600081600090555060010161143b565b5090565b6000819050919050565b61146a81611457565b82525050565b60006020820190506114856000830184611461565b92915050565b600081519050919050565b600082825260208201905092915050565b6000819050602082019050919050565b600073ffffffffffffffffffffffffffffffffffffffff82169050919050565b60006114e2826114b7565b9050919050565b6114f2816114d7565b82525050565b61150181611457565b82525050565b600081519050919050565b600082825260208201905092915050565b60005b83811015611541578082015181840152602081019050611526565b83811115611550576000848401525b50505050565b6000601f19601f8301169050919050565b600061157282611507565b61157c8185611512565b935061158c818560208601611523565b61159581611556565b840191505092915050565b600060c0830160008301516115b860008601826114e9565b5060208301516115cb60208601826114e9565b5060408301516115de60408601826114f8565b50606083015184820360608601526115f68282611567565b915050608083015161160b60808601826114f8565b5060a083015184820360a08601526116238282611567565b9150508091505092915050565b600061163c83836115a0565b905092915050565b6000602082019050919050565b600061165c8261148b565b6116668185611496565b935083602082028501611678856114a7565b8060005b858110156116b457848403895281516116958582611630565b94506116a083611644565b925060208a0199505060018101905061167c565b50829750879550505050505092915050565b600060208201905081810360008301526116e08184611651565b905092915050565b6000604051905090565b600080fd5b600080fd5b611705816114d7565b811461171057600080fd5b50565b600081359050611722816116fc565b92915050565b60006020828403121561173e5761173d6116f2565b5b600061174c84828501611713565b91505092915050565b60008115159050919050565b61176a81611755565b82525050565b60006020820190506117856000830184611761565b92915050565b611794816114d7565b82525050565b60006020820190506117af600083018461178b565b92915050565b6117be81611457565b81146117c957600080fd5b50565b6000813590506117db816117b5565b92915050565b600080604083850312156117f8576117f76116f2565b5b600061180685828601611713565b9250506020611817858286016117cc565b9150509250929050565b600061182c826114b7565b9050919050565b61183c81611821565b811461184757600080fd5b50565b60008135905061185981611833565b92915050565b600080fd5b600080fd5b7f4e487b7100000000000000000000000000000000000000000000000000000000600052604160045260246000fd5b6118a182611556565b810181811067ffffffffffffffff821117156118c0576118bf611869565b5b80604052505050565b60006118d36116e8565b90506118df8282611898565b919050565b600067ffffffffffffffff8211156118ff576118fe611869565b5b61190882611556565b9050602081019050919050565b82818337600083830152505050565b6000611937611932846118e4565b6118c9565b90508281526020810184848401111561195357611952611864565b5b61195e848285611915565b509392505050565b600082601f83011261197b5761197a61185f565b5b813561198b848260208601611924565b91505092915050565b600080600080608085870312156119ae576119ad6116f2565b5b60006119bc8782880161184a565b94505060206119cd878288016117cc565b935050604085013567ffffffffffffffff8111156119ee576119ed6116f7565b5b6119fa87828801611966565b925050606085013567ffffffffffffffff811115611a1b57611a1a6116f7565b5b611a2787828801611966565b91505092959194509250565b60008060408385031215611a4a57611a496116f2565b5b6000611a588582860161184a565b9250506020611a69858286016117cc565b9150509250929050565b600082825260208201905092915050565b7f4f776e61626c653a2063616c6c6572206973206e6f7420746865206f776e6572600082015250565b6000611aba602083611a73565b9150611ac582611a84565b602082019050919050565b60006020820190508181036000830152611ae981611aad565b9050919050565b7f4e487b7100000000000000000000000000000000000000000000000000000000600052602260045260246000fd5b60006002820490506001821680611b3757607f821691505b602082108103611b4a57611b49611af0565b5b50919050565b7f43616e6e6f742072656e6f756e6365206f776e65727368697021000000000000600082015250565b6000611b86601a83611a73565b9150611b9182611b50565b602082019050919050565b60006020820190508181036000830152611bb581611b79565b9050919050565b7f596f7520617265206e6f7420616c6c6f77656421000000000000000000000000600082015250565b6000611bf2601483611a73565b9150611bfd82611bbc565b602082019050919050565b60006020820190508181036000830152611c2181611be5565b9050919050565b6000604082019050611c3d6000830185611461565b611c4a6020830184611461565b9392505050565b7f4e487b7100000000000000000000000000000000000000000000000000000000600052601160045260246000fd5b6000611c8b82611457565b9150611c9683611457565b9250827fffffffffffffffffffffffffffffffffffffffffffffffffffffffffffffffff03821115611ccb57611cca611c51565b5b828201905092915050565b6000819050919050565b6000611cfb611cf6611cf1846114b7565b611cd6565b6114b7565b9050919050565b6000611d0d82611ce0565b9050919050565b6000611d1f82611d02565b9050919050565b611d2f81611d14565b82525050565b6000611d4082611507565b611d4a8185611a73565b9350611d5a818560208601611523565b611d6381611556565b840191505092915050565b600060c082019050611d83600083018961178b565b611d906020830188611d26565b611d9d6040830187611461565b8181036060830152611daf8186611d35565b9050611dbe6080830185611461565b81810360a0830152611dd08184611d35565b9050979650505050505050565b600081905092915050565b50565b6000611df8600083611ddd565b9150611e0382611de8565b600082019050919050565b6000611e1982611deb565b9150819050919050565b7f5472616e73666572206661696c65642e00000000000000000000000000000000600082015250565b6000611e59601083611a73565b9150611e6482611e23565b602082019050919050565b60006020820190508181036000830152611e8881611e4c565b9050919050565b7f496e73756666696369656e742066756e64732100000000000000000000000000600082015250565b6000611ec5601383611a73565b9150611ed082611e8f565b602082019050919050565b60006020820190508181036000830152611ef481611eb8565b9050919050565b7f4f776e61626c653a206e6577206f776e657220697320746865207a65726f206160008201527f6464726573730000000000000000000000000000000000000000000000000000602082015250565b6000611f57602683611a73565b9150611f6282611efb565b604082019050919050565b60006020820190508181036000830152611f8681611f4a565b9050919050565b6000611f9882611457565b9150611fa383611457565b925082821015611fb657611fb5611c51565b5b82820390509291505056fea2646970667358221220541a27677410c09339ddfc27b8cd12beb6dff47456ebe92a29a3a78a55d9d3f664736f6c634300080d0033",
  "immutableReferences": {},
  "source": "//SPDX-License-Identifier: MIT\n\npragma solidity >= 0.7.0 < 0.9.0;\n\nimport \"@openzeppelin/contracts/access/Ownable.sol\";\nimport \"@openzeppelin/contracts/utils/math/SafeMath.sol\";\n\ncontract FamilyWallet is Ownable {\n\n    using SafeMath for uint;\n\n    uint256 transactionCount;\n    bool public isStopped = false;\n\n    struct TransferStruct {\n        address sender;\n        address receiver;\n        uint amount;\n        string message;\n        uint256 timestamp;\n        string keyword;\n    }\n\n    TransferStruct[] transactions;\n\n    mapping(address => uint) public allowance;\n\n    modifier ownerOrAllowed(uint _amount) {\n        require(isOwner() || allowance[msg.sender] >= _amount, \"You are not allowed!\");\n        _;\n    }\n\n    modifier onlyWhenNotStopped {\n        require(!isStopped);\n        _;\n    }\n\n    modifier onlyWhenStopped {\n        require(isStopped);\n        _;\n    }\n\n    event AllowanceChanged(address indexed _forWho, address indexed _byWhom, uint _oldAmount, uint _newAmount);\n    event MoneySent (address indexed _beneficiary, uint _amount);\n    event MoneyReceived (address indexed _from, uint _amount);\n    event Transfer(address from, address to, uint amount, string message, uint256 timestamp, string keyword);\n\n    receive() external payable {\n        emit MoneyReceived(msg.sender, msg.value);\n    }\n\n    function isOwner() internal view returns(bool) {\n        return owner() == msg.sender;\n    }\n\n    function emergencyWithdraw() external onlyWhenStopped onlyOwner {\n        (bool success, ) = owner().call{value: address(this).balance}(\"\");\n        require(success, \"Transfer failed.\");\n    }\n\n    function destroy() external onlyWhenStopped onlyOwner {\n        selfdestruct(payable(address(this)));\n    }\n\n    function stopContract() external onlyOwner {\n        isStopped = true;\n    }\n\n    function resumeContract() external onlyOwner {\n        isStopped = false;\n    }\n\n    function addAllowance(address _who, uint _amount) public onlyOwner {\n        allowance[_who] = _amount;\n        emit AllowanceChanged(_who, msg.sender, allowance[_who], _amount);\n    }\n\n    function reduceAllowance(address _who, uint _amount) public ownerOrAllowed(_amount) {\n        emit AllowanceChanged(_who, msg.sender, allowance[_who], allowance[_who].sub(_amount));\n        allowance[_who] =  allowance[_who].sub(_amount);\n    }\n\n    function getAllowance() public view returns (uint) {\n        return allowance[msg.sender];\n    }   \n\n    function addToBlockchain(address payable to, uint amount, string memory message, string memory keyword) public {\n        transactionCount += 1;\n        emit Transfer(msg.sender, to, amount, message, block.timestamp, keyword);\n        transactions.push(TransferStruct(msg.sender, to, amount, message, block.timestamp, keyword));\n    }\n\n    function getAllTransactions() public view returns (TransferStruct[] memory) {\n        return transactions;\n    }\n    \n    function getTransactionCount() public view returns (uint256) {\n        return transactionCount;\n    }\n\n    function getTransactionsLength() public view returns(uint256) {\n        return transactions.length;\n    }\n\n    function withdrawMoney(address payable _to, uint _amount) public ownerOrAllowed(_amount) {\n        require(_amount <= (address(this)).balance, \"Insufficient funds!\");\n        if(!isOwner()) {\n            reduceAllowance(msg.sender, _amount);\n        }\n        emit MoneySent(_to, _amount);\n        _to.transfer(_amount);\n    }\n\n    function renounceOwnership() public view override onlyOwner {\n        revert(\"Cannot renounce ownership!\");\n    }\n\n}",
  "sourcePath": "/Users/erdal/Desktop/code/wallet/contracts/FamilyWallet.sol",
  "compiler": {
    "name": "solc",
    "version": "0.8.13+commit.abaa5c0e.Emscripten.clang"
  },
  "schemaVersion": "3.4.7",
  "updatedAt": "2022-05-15T14:34:12.686Z",
  "networkType": "ethereum",
  "devdoc": {
    "kind": "dev",
    "methods": {
      "owner()": {
        "details": "Returns the address of the current owner."
      },
      "renounceOwnership()": {
        "details": "Leaves the contract without owner. It will not be possible to call `onlyOwner` functions anymore. Can only be called by the current owner. NOTE: Renouncing ownership will leave the contract without an owner, thereby removing any functionality that is only available to the owner."
      },
      "transferOwnership(address)": {
        "details": "Transfers ownership of the contract to a new account (`newOwner`). Can only be called by the current owner."
      }
    },
    "version": 1
  },
  "userdoc": {
    "kind": "user",
    "methods": {},
    "version": 1
  }
}