{
  "contractName": "FamilyWallet",
  "abi": [
    {
      "anonymous": false,
      "inputs": [
        {
          "indexed": true,
          "internalType": "address",
          "name": "_forWho",
          "type": "address"
        },
        {
          "indexed": true,
          "internalType": "address",
          "name": "_byWhom",
          "type": "address"
        },
        {
          "indexed": false,
          "internalType": "uint256",
          "name": "_oldAmount",
          "type": "uint256"
        },
        {
          "indexed": false,
          "internalType": "uint256",
          "name": "_newAmount",
          "type": "uint256"
        }
      ],
      "name": "AllowanceChanged",
      "type": "event"
    },
    {
      "anonymous": false,
      "inputs": [
        {
          "indexed": true,
          "internalType": "address",
          "name": "_from",
          "type": "address"
        },
        {
          "indexed": false,
          "internalType": "uint256",
          "name": "_amount",
          "type": "uint256"
        }
      ],
      "name": "MoneyReceived",
      "type": "event"
    },
    {
      "anonymous": false,
      "inputs": [
        {
          "indexed": true,
          "internalType": "address",
          "name": "_beneficiary",
          "type": "address"
        },
        {
          "indexed": false,
          "internalType": "uint256",
          "name": "_amount",
          "type": "uint256"
        }
      ],
      "name": "MoneySent",
      "type": "event"
    },
    {
      "anonymous": false,
      "inputs": [
        {
          "indexed": true,
          "internalType": "address",
          "name": "previousOwner",
          "type": "address"
        },
        {
          "indexed": true,
          "internalType": "address",
          "name": "newOwner",
          "type": "address"
        }
      ],
      "name": "OwnershipTransferred",
      "type": "event"
    },
    {
      "anonymous": false,
      "inputs": [
        {
          "indexed": false,
          "internalType": "address",
          "name": "from",
          "type": "address"
        },
        {
          "indexed": false,
          "internalType": "address",
          "name": "receiver",
          "type": "address"
        },
        {
          "indexed": false,
          "internalType": "uint256",
          "name": "amount",
          "type": "uint256"
        },
        {
          "indexed": false,
          "internalType": "string",
          "name": "message",
          "type": "string"
        },
        {
          "indexed": false,
          "internalType": "uint256",
          "name": "timestamp",
          "type": "uint256"
        },
        {
          "indexed": false,
          "internalType": "string",
          "name": "keyword",
          "type": "string"
        }
      ],
      "name": "Transfer",
      "type": "event"
    },
    {
      "inputs": [
        {
          "internalType": "address",
          "name": "",
          "type": "address"
        }
      ],
      "name": "allowance",
      "outputs": [
        {
          "internalType": "uint256",
          "name": "",
          "type": "uint256"
        }
      ],
      "stateMutability": "view",
      "type": "function",
      "constant": true
    },
    {
      "inputs": [],
      "name": "numOfBeneficiaries",
      "outputs": [
        {
          "internalType": "uint256",
          "name": "",
          "type": "uint256"
        }
      ],
      "stateMutability": "view",
      "type": "function",
      "constant": true
    },
    {
      "inputs": [],
      "name": "owner",
      "outputs": [
        {
          "internalType": "address",
          "name": "",
          "type": "address"
        }
      ],
      "stateMutability": "view",
      "type": "function",
      "constant": true
    },
    {
      "inputs": [
        {
          "internalType": "address",
          "name": "newOwner",
          "type": "address"
        }
      ],
      "name": "transferOwnership",
      "outputs": [],
      "stateMutability": "nonpayable",
      "type": "function"
    },
    {
      "stateMutability": "payable",
      "type": "receive",
      "payable": true
    },
    {
      "inputs": [
        {
          "internalType": "address",
          "name": "_who",
          "type": "address"
        },
        {
          "internalType": "uint256",
          "name": "_amount",
          "type": "uint256"
        }
      ],
      "name": "addAllowance",
      "outputs": [],
      "stateMutability": "nonpayable",
      "type": "function"
    },
    {
      "inputs": [
        {
          "internalType": "address",
          "name": "_who",
          "type": "address"
        }
      ],
      "name": "getAllowance",
      "outputs": [
        {
          "internalType": "uint256",
          "name": "",
          "type": "uint256"
        }
      ],
      "stateMutability": "view",
      "type": "function",
      "constant": true
    },
    {
      "inputs": [
        {
          "internalType": "address payable",
          "name": "receiver",
          "type": "address"
        },
        {
          "internalType": "uint256",
          "name": "amount",
          "type": "uint256"
        },
        {
          "internalType": "string",
          "name": "message",
          "type": "string"
        },
        {
          "internalType": "string",
          "name": "keyword",
          "type": "string"
        }
      ],
      "name": "addToBlockchain",
      "outputs": [],
      "stateMutability": "nonpayable",
      "type": "function"
    },
    {
      "inputs": [],
      "name": "getAllTransactions",
      "outputs": [
        {
          "components": [
            {
              "internalType": "address",
              "name": "sender",
              "type": "address"
            },
            {
              "internalType": "address",
              "name": "receiver",
              "type": "address"
            },
            {
              "internalType": "uint256",
              "name": "amount",
              "type": "uint256"
            },
            {
              "internalType": "string",
              "name": "message",
              "type": "string"
            },
            {
              "internalType": "uint256",
              "name": "timestamp",
              "type": "uint256"
            },
            {
              "internalType": "string",
              "name": "keyword",
              "type": "string"
            }
          ],
          "internalType": "struct FamilyWallet.TransferStruct[]",
          "name": "",
          "type": "tuple[]"
        }
      ],
      "stateMutability": "view",
      "type": "function",
      "constant": true
    },
    {
      "inputs": [],
      "name": "getTransactionCount",
      "outputs": [
        {
          "internalType": "uint256",
          "name": "",
          "type": "uint256"
        }
      ],
      "stateMutability": "view",
      "type": "function",
      "constant": true
    },
    {
      "inputs": [
        {
          "internalType": "address payable",
          "name": "_to",
          "type": "address"
        },
        {
          "internalType": "uint256",
          "name": "_amount",
          "type": "uint256"
        }
      ],
      "name": "withdrawMoney",
      "outputs": [],
      "stateMutability": "nonpayable",
      "type": "function"
    },
    {
      "inputs": [],
      "name": "renounceOwnership",
      "outputs": [],
      "stateMutability": "view",
      "type": "function",
      "constant": true
    },
    {
      "inputs": [
        {
          "internalType": "address",
          "name": "_who",
          "type": "address"
        },
        {
          "internalType": "uint256",
          "name": "_amount",
          "type": "uint256"
        }
      ],
      "name": "reduceAllowance",
      "outputs": [],
      "stateMutability": "nonpayable",
      "type": "function"
    }
  ],
  "bytecode": "0x608060405234801561001057600080fd5b5061002d61002261003260201b60201c565b61003a60201b60201c565b6100fe565b600033905090565b60008060009054906101000a900473ffffffffffffffffffffffffffffffffffffffff169050816000806101000a81548173ffffffffffffffffffffffffffffffffffffffff021916908373ffffffffffffffffffffffffffffffffffffffff1602179055508173ffffffffffffffffffffffffffffffffffffffff168173ffffffffffffffffffffffffffffffffffffffff167f8be0079c531659141344cd1fd0a4f28419497f9722a3daafe3b4186f6b6457e060405160405180910390a35050565b611ad38061010d6000396000f3fe6080604052600436106100ab5760003560e01c8063cc2d7ead11610064578063cc2d7ead14610203578063d61f31c51461022c578063eb5a662e14610257578063f274c89714610294578063f2fde38b146102bd578063f3c40c4b146102e657610100565b806327506f53146101055780632e7700f0146101305780633e5beab91461015b578063715018a6146101985780638da5cb5b146101af5780638fdf08df146101da57610100565b36610100573373ffffffffffffffffffffffffffffffffffffffff167f27b15ed4cf832749ed39f33a64e4707ed60a761485e41ffec7343ecaddc0c02a346040516100f69190611034565b60405180910390a2005b600080fd5b34801561011157600080fd5b5061011a61030f565b604051610127919061128a565b60405180910390f35b34801561013c57600080fd5b50610145610552565b6040516101529190611034565b60405180910390f35b34801561016757600080fd5b50610182600480360381019061017d91906112ec565b61055c565b60405161018f9190611034565b60405180910390f35b3480156101a457600080fd5b506101ad610574565b005b3480156101bb57600080fd5b506101c461062b565b6040516101d19190611328565b60405180910390f35b3480156101e657600080fd5b5061020160048036038101906101fc919061136f565b610654565b005b34801561020f57600080fd5b5061022a60048036038101906102259190611522565b610860565b005b34801561023857600080fd5b50610241610a23565b60405161024e9190611034565b60405180910390f35b34801561026357600080fd5b5061027e600480360381019061027991906112ec565b610a29565b60405161028b9190611034565b60405180910390f35b3480156102a057600080fd5b506102bb60048036038101906102b691906115c1565b610a72565b005b3480156102c957600080fd5b506102e460048036038101906102df91906112ec565b610bf8565b005b3480156102f257600080fd5b5061030d6004803603810190610308919061136f565b610cef565b005b60606003805480602002602001604051908101604052809291908181526020016000905b8282101561054957838290600052602060002090600602016040518060c00160405290816000820160009054906101000a900473ffffffffffffffffffffffffffffffffffffffff1673ffffffffffffffffffffffffffffffffffffffff1673ffffffffffffffffffffffffffffffffffffffff1681526020016001820160009054906101000a900473ffffffffffffffffffffffffffffffffffffffff1673ffffffffffffffffffffffffffffffffffffffff1673ffffffffffffffffffffffffffffffffffffffff1681526020016002820154815260200160038201805461041c90611630565b80601f016020809104026020016040519081016040528092919081815260200182805461044890611630565b80156104955780601f1061046a57610100808354040283529160200191610495565b820191906000526020600020905b81548152906001019060200180831161047857829003601f168201915b50505050508152602001600482015481526020016005820180546104b890611630565b80601f01602080910402602001604051908101604052809291908181526020018280546104e490611630565b80156105315780601f1061050657610100808354040283529160200191610531565b820191906000526020600020905b81548152906001019060200180831161051457829003601f168201915b50505050508152505081526020019060010190610333565b50505050905090565b6000600254905090565b60046020528060005260406000206000915090505481565b61057c610e59565b73ffffffffffffffffffffffffffffffffffffffff1661059a61062b565b73ffffffffffffffffffffffffffffffffffffffff16146105f0576040517f08c379a00000000000000000000000000000000000000000000000000000000081526004016105e7906116be565b60405180910390fd5b6040517f08c379a00000000000000000000000000000000000000000000000000000000081526004016106229061172a565b60405180910390fd5b60008060009054906101000a900473ffffffffffffffffffffffffffffffffffffffff16905090565b61065c610e59565b73ffffffffffffffffffffffffffffffffffffffff1661067a61062b565b73ffffffffffffffffffffffffffffffffffffffff16146106d0576040517f08c379a00000000000000000000000000000000000000000000000000000000081526004016106c7906116be565b60405180910390fd5b61072281600460008573ffffffffffffffffffffffffffffffffffffffff1673ffffffffffffffffffffffffffffffffffffffff16815260200190815260200160002054610e6190919063ffffffff16565b600460008473ffffffffffffffffffffffffffffffffffffffff1673ffffffffffffffffffffffffffffffffffffffff168152602001908152602001600020819055503373ffffffffffffffffffffffffffffffffffffffff168273ffffffffffffffffffffffffffffffffffffffff167f3691d1a86d99355e52b689ca70a7bdf6d80763237a6aa06e5fa43964eac7244b600460008673ffffffffffffffffffffffffffffffffffffffff1673ffffffffffffffffffffffffffffffffffffffff1681526020019081526020016000205461084685600460008973ffffffffffffffffffffffffffffffffffffffff1673ffffffffffffffffffffffffffffffffffffffff16815260200190815260200160002054610e6190919063ffffffff16565b60405161085492919061174a565b60405180910390a35050565b60016002600082825461087391906117a2565b9250508190555060036040518060c001604052803373ffffffffffffffffffffffffffffffffffffffff1681526020018673ffffffffffffffffffffffffffffffffffffffff16815260200185815260200184815260200142815260200183815250908060018154018082558091505060019003906000526020600020906006020160009091909190915060008201518160000160006101000a81548173ffffffffffffffffffffffffffffffffffffffff021916908373ffffffffffffffffffffffffffffffffffffffff16021790555060208201518160010160006101000a81548173ffffffffffffffffffffffffffffffffffffffff021916908373ffffffffffffffffffffffffffffffffffffffff1602179055506040820151816002015560608201518160030190805190602001906109b2929190610f78565b506080820151816004015560a08201518160050190805190602001906109d9929190610f78565b5050507f416cfa4330a4565f45c2fd2dd4826a83a37443aba2ce6f79477c7355afac35fa338585854286604051610a1596959493929190611890565b60405180910390a150505050565b60015481565b6000600460008373ffffffffffffffffffffffffffffffffffffffff1673ffffffffffffffffffffffffffffffffffffffff168152602001908152602001600020549050919050565b80610a7b610e77565b80610ac5575080600460003373ffffffffffffffffffffffffffffffffffffffff1673ffffffffffffffffffffffffffffffffffffffff1681526020019081526020016000205410155b610b04576040517f08c379a0000000000000000000000000000000000000000000000000000000008152600401610afb9061194b565b60405180910390fd5b47821115610b47576040517f08c379a0000000000000000000000000000000000000000000000000000000008152600401610b3e906119b7565b60405180910390fd5b610b4f610e77565b610b5e57610b5d3383610654565b5b8273ffffffffffffffffffffffffffffffffffffffff166108fc839081150290604051600060405180830381858888f19350505050158015610ba4573d6000803e3d6000fd5b508273ffffffffffffffffffffffffffffffffffffffff167f7f51d406915971d4ac1c91af96be5187ea6ab64753785aad519a533def80a41e83604051610beb9190611034565b60405180910390a2505050565b610c00610e59565b73ffffffffffffffffffffffffffffffffffffffff16610c1e61062b565b73ffffffffffffffffffffffffffffffffffffffff1614610c74576040517f08c379a0000000000000000000000000000000000000000000000000000000008152600401610c6b906116be565b60405180910390fd5b600073ffffffffffffffffffffffffffffffffffffffff168173ffffffffffffffffffffffffffffffffffffffff1603610ce3576040517f08c379a0000000000000000000000000000000000000000000000000000000008152600401610cda90611a49565b60405180910390fd5b610cec81610eb4565b50565b610cf7610e59565b73ffffffffffffffffffffffffffffffffffffffff16610d1561062b565b73ffffffffffffffffffffffffffffffffffffffff1614610d6b576040517f08c379a0000000000000000000000000000000000000000000000000000000008152600401610d62906116be565b60405180910390fd5b80600460008473ffffffffffffffffffffffffffffffffffffffff1673ffffffffffffffffffffffffffffffffffffffff168152602001908152602001600020819055503373ffffffffffffffffffffffffffffffffffffffff168273ffffffffffffffffffffffffffffffffffffffff167f3691d1a86d99355e52b689ca70a7bdf6d80763237a6aa06e5fa43964eac7244b600460008673ffffffffffffffffffffffffffffffffffffffff1673ffffffffffffffffffffffffffffffffffffffff1681526020019081526020016000205484604051610e4d92919061174a565b60405180910390a35050565b600033905090565b60008183610e6f9190611a69565b905092915050565b60003373ffffffffffffffffffffffffffffffffffffffff16610e9861062b565b73ffffffffffffffffffffffffffffffffffffffff1614905090565b60008060009054906101000a900473ffffffffffffffffffffffffffffffffffffffff169050816000806101000a81548173ffffffffffffffffffffffffffffffffffffffff021916908373ffffffffffffffffffffffffffffffffffffffff1602179055508173ffffffffffffffffffffffffffffffffffffffff168173ffffffffffffffffffffffffffffffffffffffff167f8be0079c531659141344cd1fd0a4f28419497f9722a3daafe3b4186f6b6457e060405160405180910390a35050565b828054610f8490611630565b90600052602060002090601f016020900481019282610fa65760008555610fed565b82601f10610fbf57805160ff1916838001178555610fed565b82800160010185558215610fed579182015b82811115610fec578251825591602001919060010190610fd1565b5b509050610ffa9190610ffe565b5090565b5b80821115611017576000816000905550600101610fff565b5090565b6000819050919050565b61102e8161101b565b82525050565b60006020820190506110496000830184611025565b92915050565b600081519050919050565b600082825260208201905092915050565b6000819050602082019050919050565b600073ffffffffffffffffffffffffffffffffffffffff82169050919050565b60006110a68261107b565b9050919050565b6110b68161109b565b82525050565b6110c58161101b565b82525050565b600081519050919050565b600082825260208201905092915050565b60005b838110156111055780820151818401526020810190506110ea565b83811115611114576000848401525b50505050565b6000601f19601f8301169050919050565b6000611136826110cb565b61114081856110d6565b93506111508185602086016110e7565b6111598161111a565b840191505092915050565b600060c08301600083015161117c60008601826110ad565b50602083015161118f60208601826110ad565b5060408301516111a260408601826110bc565b50606083015184820360608601526111ba828261112b565b91505060808301516111cf60808601826110bc565b5060a083015184820360a08601526111e7828261112b565b9150508091505092915050565b60006112008383611164565b905092915050565b6000602082019050919050565b60006112208261104f565b61122a818561105a565b93508360208202850161123c8561106b565b8060005b85811015611278578484038952815161125985826111f4565b945061126483611208565b925060208a01995050600181019050611240565b50829750879550505050505092915050565b600060208201905081810360008301526112a48184611215565b905092915050565b6000604051905090565b600080fd5b600080fd5b6112c98161109b565b81146112d457600080fd5b50565b6000813590506112e6816112c0565b92915050565b600060208284031215611302576113016112b6565b5b6000611310848285016112d7565b91505092915050565b6113228161109b565b82525050565b600060208201905061133d6000830184611319565b92915050565b61134c8161101b565b811461135757600080fd5b50565b60008135905061136981611343565b92915050565b60008060408385031215611386576113856112b6565b5b6000611394858286016112d7565b92505060206113a58582860161135a565b9150509250929050565b60006113ba8261107b565b9050919050565b6113ca816113af565b81146113d557600080fd5b50565b6000813590506113e7816113c1565b92915050565b600080fd5b600080fd5b7f4e487b7100000000000000000000000000000000000000000000000000000000600052604160045260246000fd5b61142f8261111a565b810181811067ffffffffffffffff8211171561144e5761144d6113f7565b5b80604052505050565b60006114616112ac565b905061146d8282611426565b919050565b600067ffffffffffffffff82111561148d5761148c6113f7565b5b6114968261111a565b9050602081019050919050565b82818337600083830152505050565b60006114c56114c084611472565b611457565b9050828152602081018484840111156114e1576114e06113f2565b5b6114ec8482856114a3565b509392505050565b600082601f830112611509576115086113ed565b5b81356115198482602086016114b2565b91505092915050565b6000806000806080858703121561153c5761153b6112b6565b5b600061154a878288016113d8565b945050602061155b8782880161135a565b935050604085013567ffffffffffffffff81111561157c5761157b6112bb565b5b611588878288016114f4565b925050606085013567ffffffffffffffff8111156115a9576115a86112bb565b5b6115b5878288016114f4565b91505092959194509250565b600080604083850312156115d8576115d76112b6565b5b60006115e6858286016113d8565b92505060206115f78582860161135a565b9150509250929050565b7f4e487b7100000000000000000000000000000000000000000000000000000000600052602260045260246000fd5b6000600282049050600182168061164857607f821691505b60208210810361165b5761165a611601565b5b50919050565b600082825260208201905092915050565b7f4f776e61626c653a2063616c6c6572206973206e6f7420746865206f776e6572600082015250565b60006116a8602083611661565b91506116b382611672565b602082019050919050565b600060208201905081810360008301526116d78161169b565b9050919050565b7f43616e6e6f742072656e6f756e6365206f776e65727368697021000000000000600082015250565b6000611714601a83611661565b915061171f826116de565b602082019050919050565b6000602082019050818103600083015261174381611707565b9050919050565b600060408201905061175f6000830185611025565b61176c6020830184611025565b9392505050565b7f4e487b7100000000000000000000000000000000000000000000000000000000600052601160045260246000fd5b60006117ad8261101b565b91506117b88361101b565b9250827fffffffffffffffffffffffffffffffffffffffffffffffffffffffffffffffff038211156117ed576117ec611773565b5b828201905092915050565b6000819050919050565b600061181d6118186118138461107b565b6117f8565b61107b565b9050919050565b600061182f82611802565b9050919050565b600061184182611824565b9050919050565b61185181611836565b82525050565b6000611862826110cb565b61186c8185611661565b935061187c8185602086016110e7565b6118858161111a565b840191505092915050565b600060c0820190506118a56000830189611319565b6118b26020830188611848565b6118bf6040830187611025565b81810360608301526118d18186611857565b90506118e06080830185611025565b81810360a08301526118f28184611857565b9050979650505050505050565b7f596f7520617265206e6f7420616c6c6f77656421000000000000000000000000600082015250565b6000611935601483611661565b9150611940826118ff565b602082019050919050565b6000602082019050818103600083015261196481611928565b9050919050565b7f496e73756666696369656e742066756e64732100000000000000000000000000600082015250565b60006119a1601383611661565b91506119ac8261196b565b602082019050919050565b600060208201905081810360008301526119d081611994565b9050919050565b7f4f776e61626c653a206e6577206f776e657220697320746865207a65726f206160008201527f6464726573730000000000000000000000000000000000000000000000000000602082015250565b6000611a33602683611661565b9150611a3e826119d7565b604082019050919050565b60006020820190508181036000830152611a6281611a26565b9050919050565b6000611a748261101b565b9150611a7f8361101b565b925082821015611a9257611a91611773565b5b82820390509291505056fea2646970667358221220d0775eb762bfbb1ebb91731999ff578ba1e484ccd98b1ee68aa42119a1cab52564736f6c634300080d0033",
  "immutableReferences": {},
  "source": "//SPDX-License-Identifier: MIT\n\npragma solidity >= 0.7.0 < 0.9.0;\n\nimport \"@openzeppelin/contracts/access/Ownable.sol\";\nimport \"@openzeppelin/contracts/utils/math/SafeMath.sol\";\n\ncontract FamilyWallet is Ownable{\n\n    using SafeMath for uint;\n\n    uint public numOfBeneficiaries;\n    uint256 transactionCount;\n\n    struct TransferStruct {\n        address sender;\n        address receiver;\n        uint amount;\n        string message;\n        uint256 timestamp;\n        string keyword;\n    }\n\n    TransferStruct[] transactions;\n\n    mapping(address => uint) public allowance;\n\n\n    modifier ownerOrAllowed(uint _amount) {\n        require(isOwner() || allowance[msg.sender] >= _amount, \"You are not allowed!\");\n        _;\n    }\n\n    event AllowanceChanged(address indexed _forWho, address indexed _byWhom, uint _oldAmount, uint _newAmount);\n    event MoneySent (address indexed _beneficiary, uint _amount);\n    event MoneyReceived (address indexed _from, uint _amount);\n    event Transfer(address from, address receiver, uint amount, string message, uint256 timestamp, string keyword);\n\n    receive() external payable {\n        emit MoneyReceived(msg.sender, msg.value);\n    }\n\n    function addAllowance(address _who, uint _amount) public onlyOwner {\n        allowance[_who] = _amount;\n        emit AllowanceChanged(_who, msg.sender, allowance[_who], _amount);\n    }\n\n    function getAllowance(address _who) public view returns (uint) {\n        return allowance[_who];\n    }   \n\n    function addToBlockchain(address payable receiver, uint amount, string memory message, string memory keyword) public {\n        transactionCount += 1;\n        transactions.push(TransferStruct(msg.sender, receiver, amount, message, block.timestamp, keyword));\n\n        emit Transfer(msg.sender, receiver, amount, message, block.timestamp, keyword);\n    }\n\n    function getAllTransactions() public view returns (TransferStruct[] memory) {\n        return transactions;\n    }\n\n    function getTransactionCount() public view returns (uint256) {\n        return transactionCount;\n    }\n\n    function withdrawMoney(address payable _to, uint _amount) public ownerOrAllowed(_amount) {\n        require(_amount <= address(this).balance, \"Insufficient funds!\");\n        if(!isOwner()) {\n            reduceAllowance(msg.sender, _amount);\n        }\n        _to.transfer(_amount);\n        emit MoneySent(_to, _amount);\n    }\n\n    function renounceOwnership() public view override onlyOwner {\n        revert(\"Cannot renounce ownership!\");\n    }\n\n    function reduceAllowance(address _who, uint _amount) public onlyOwner() {\n        allowance[_who] =  allowance[_who].sub(_amount);\n        emit AllowanceChanged(_who, msg.sender, allowance[_who], allowance[_who].sub(_amount));\n    }\n\n    function isOwner() internal view returns(bool) {\n        return owner() == msg.sender;\n    }\n}",
  "sourcePath": "/Users/erdal/Desktop/code/wallet/contracts/FamilyWallet.sol",
  "compiler": {
    "name": "solc",
    "version": "0.8.13+commit.abaa5c0e.Emscripten.clang"
  },
  "schemaVersion": "3.4.6",
  "updatedAt": "2022-04-20T15:37:57.745Z",
  "networkType": "ethereum",
  "devdoc": {
    "kind": "dev",
    "methods": {
      "owner()": {
        "details": "Returns the address of the current owner."
      },
      "renounceOwnership()": {
        "details": "Leaves the contract without owner. It will not be possible to call `onlyOwner` functions anymore. Can only be called by the current owner. NOTE: Renouncing ownership will leave the contract without an owner, thereby removing any functionality that is only available to the owner."
      },
      "transferOwnership(address)": {
        "details": "Transfers ownership of the contract to a new account (`newOwner`). Can only be called by the current owner."
      }
    },
    "version": 1
  },
  "userdoc": {
    "kind": "user",
    "methods": {},
    "version": 1
  }
}